{
	"src/contracts-app/contracts/DataStorage.sol": {
		"DataStorage": {
			"abi": [
				{
					"anonymous": false,
					"inputs": [
						{
							"indexed": false,
							"internalType": "string",
							"name": "storedResult",
							"type": "string"
						}
					],
					"name": "DataWritten",
					"type": "event"
				},
				{
					"inputs": [
						{
							"internalType": "string",
							"name": "newData",
							"type": "string"
						}
					],
					"name": "addData",
					"outputs": [],
					"stateMutability": "nonpayable",
					"type": "function"
				},
				{
					"inputs": [],
					"name": "clearData",
					"outputs": [],
					"stateMutability": "nonpayable",
					"type": "function"
				},
				{
					"inputs": [
						{
							"internalType": "uint256",
							"name": "",
							"type": "uint256"
						}
					],
					"name": "storedData",
					"outputs": [
						{
							"internalType": "string",
							"name": "",
							"type": "string"
						}
					],
					"stateMutability": "view",
					"type": "function"
				},
				{
					"inputs": [
						{
							"internalType": "string[]",
							"name": "values",
							"type": "string[]"
						},
						{
							"internalType": "string",
							"name": "delimiter",
							"type": "string"
						}
					],
					"name": "stringJoin",
					"outputs": [
						{
							"internalType": "string",
							"name": "",
							"type": "string"
						}
					],
					"stateMutability": "pure",
					"type": "function"
				},
				{
					"stateMutability": "payable",
					"type": "receive"
				}
			],
			"devdoc": {
				"kind": "dev",
				"methods": {},
				"version": 1
			},
			"evm": {
				"assembly": "    /* \"src/contracts-app/contracts/DataStorage.sol\":61:910  contract DataStorage {... */\n  mstore(0x40, 0x80)\n  callvalue\n  dup1\n  iszero\n  tag_1\n  jumpi\n  0x00\n  dup1\n  revert\ntag_1:\n  pop\n  dataSize(sub_0)\n  dup1\n  dataOffset(sub_0)\n  0x00\n  codecopy\n  0x00\n  return\nstop\n\nsub_0: assembly {\n        /* \"src/contracts-app/contracts/DataStorage.sol\":61:910  contract DataStorage {... */\n      mstore(0x40, 0x80)\n      jumpi(tag_1, lt(calldatasize, 0x04))\n      shr(0xe0, calldataload(0x00))\n      dup1\n      0x30377174\n      eq\n      tag_3\n      jumpi\n      dup1\n      0xb9e7a439\n      eq\n      tag_4\n      jumpi\n      dup1\n      0xc2fc2dfe\n      eq\n      tag_5\n      jumpi\n      dup1\n      0xd4a2498d\n      eq\n      tag_6\n      jumpi\n      jump(tag_2)\n    tag_1:\n      jumpi(tag_2, calldatasize)\n      stop\n    tag_2:\n      0x00\n      dup1\n      revert\n        /* \"src/contracts-app/contracts/DataStorage.sol\":89:115  string[] public storedData */\n    tag_3:\n      callvalue\n      dup1\n      iszero\n      tag_9\n      jumpi\n      0x00\n      dup1\n      revert\n    tag_9:\n      pop\n      tag_10\n      0x04\n      dup1\n      calldatasize\n      sub\n      dup2\n      add\n      swap1\n      tag_11\n      swap2\n      swap1\n      tag_12\n      jump\t// in\n    tag_11:\n      tag_13\n      jump\t// in\n    tag_10:\n      mload(0x40)\n      tag_14\n      swap2\n      swap1\n      tag_15\n      jump\t// in\n    tag_14:\n      mload(0x40)\n      dup1\n      swap2\n      sub\n      swap1\n      return\n        /* \"src/contracts-app/contracts/DataStorage.sol\":441:505  function clearData() public {... */\n    tag_4:\n      callvalue\n      dup1\n      iszero\n      tag_16\n      jumpi\n      0x00\n      dup1\n      revert\n    tag_16:\n      pop\n      tag_17\n      tag_18\n      jump\t// in\n    tag_17:\n      stop\n        /* \"src/contracts-app/contracts/DataStorage.sol\":513:907  function stringJoin(string[] memory values, string memory delimiter) public pure returns (string memory) {... */\n    tag_5:\n      callvalue\n      dup1\n      iszero\n      tag_19\n      jumpi\n      0x00\n      dup1\n      revert\n    tag_19:\n      pop\n      tag_20\n      0x04\n      dup1\n      calldatasize\n      sub\n      dup2\n      add\n      swap1\n      tag_21\n      swap2\n      swap1\n      tag_22\n      jump\t// in\n    tag_21:\n      tag_23\n      jump\t// in\n    tag_20:\n      mload(0x40)\n      tag_24\n      swap2\n      swap1\n      tag_15\n      jump\t// in\n    tag_24:\n      mload(0x40)\n      dup1\n      swap2\n      sub\n      swap1\n      return\n        /* \"src/contracts-app/contracts/DataStorage.sol\":208:433  function addData(string memory newData) public {... */\n    tag_6:\n      callvalue\n      dup1\n      iszero\n      tag_25\n      jumpi\n      0x00\n      dup1\n      revert\n    tag_25:\n      pop\n      tag_26\n      0x04\n      dup1\n      calldatasize\n      sub\n      dup2\n      add\n      swap1\n      tag_27\n      swap2\n      swap1\n      tag_28\n      jump\t// in\n    tag_27:\n      tag_29\n      jump\t// in\n    tag_26:\n      stop\n        /* \"src/contracts-app/contracts/DataStorage.sol\":89:115  string[] public storedData */\n    tag_13:\n      0x00\n      dup2\n      dup2\n      sload\n      dup2\n      lt\n      tag_30\n      jumpi\n      0x00\n      dup1\n      revert\n    tag_30:\n      swap1\n      0x00\n      mstore\n      keccak256(0x00, 0x20)\n      add\n      0x00\n      swap2\n      pop\n      swap1\n      pop\n      dup1\n      sload\n      tag_32\n      swap1\n      tag_33\n      jump\t// in\n    tag_32:\n      dup1\n      0x1f\n      add\n      0x20\n      dup1\n      swap2\n      div\n      mul\n      0x20\n      add\n      mload(0x40)\n      swap1\n      dup2\n      add\n      0x40\n      mstore\n      dup1\n      swap3\n      swap2\n      swap1\n      dup2\n      dup2\n      mstore\n      0x20\n      add\n      dup3\n      dup1\n      sload\n      tag_34\n      swap1\n      tag_33\n      jump\t// in\n    tag_34:\n      dup1\n      iszero\n      tag_35\n      jumpi\n      dup1\n      0x1f\n      lt\n      tag_36\n      jumpi\n      0x0100\n      dup1\n      dup4\n      sload\n      div\n      mul\n      dup4\n      mstore\n      swap2\n      0x20\n      add\n      swap2\n      jump(tag_35)\n    tag_36:\n      dup3\n      add\n      swap2\n      swap1\n      0x00\n      mstore\n      keccak256(0x00, 0x20)\n      swap1\n    tag_37:\n      dup2\n      sload\n      dup2\n      mstore\n      swap1\n      0x01\n      add\n      swap1\n      0x20\n      add\n      dup1\n      dup4\n      gt\n      tag_37\n      jumpi\n      dup3\n      swap1\n      sub\n      0x1f\n      and\n      dup3\n      add\n      swap2\n    tag_35:\n      pop\n      pop\n      pop\n      pop\n      pop\n      dup2\n      jump\t// out\n        /* \"src/contracts-app/contracts/DataStorage.sol\":441:505  function clearData() public {... */\n    tag_18:\n        /* \"src/contracts-app/contracts/DataStorage.sol\":487:497  storedData */\n      0x00\n      dup1\n        /* \"src/contracts-app/contracts/DataStorage.sol\":480:497  delete storedData */\n      tag_39\n      swap2\n      swap1\n      tag_40\n      jump\t// in\n    tag_39:\n        /* \"src/contracts-app/contracts/DataStorage.sol\":441:505  function clearData() public {... */\n      jump\t// out\n        /* \"src/contracts-app/contracts/DataStorage.sol\":513:907  function stringJoin(string[] memory values, string memory delimiter) public pure returns (string memory) {... */\n    tag_23:\n        /* \"src/contracts-app/contracts/DataStorage.sol\":603:616  string memory */\n      0x60\n        /* \"src/contracts-app/contracts/DataStorage.sol\":650:651  0 */\n      0x00\n        /* \"src/contracts-app/contracts/DataStorage.sol\":633:639  values */\n      dup4\n        /* \"src/contracts-app/contracts/DataStorage.sol\":633:646  values.length */\n      mload\n        /* \"src/contracts-app/contracts/DataStorage.sol\":633:651  values.length == 0 */\n      sub\n        /* \"src/contracts-app/contracts/DataStorage.sol\":629:689  if (values.length == 0) {... */\n      tag_42\n      jumpi\n        /* \"src/contracts-app/contracts/DataStorage.sol\":668:677  return \"\" */\n      mload(0x40)\n      dup1\n      0x20\n      add\n      0x40\n      mstore\n      dup1\n      0x00\n      dup2\n      mstore\n      pop\n      swap1\n      pop\n      jump(tag_41)\n        /* \"src/contracts-app/contracts/DataStorage.sol\":629:689  if (values.length == 0) {... */\n    tag_42:\n        /* \"src/contracts-app/contracts/DataStorage.sol\":699:719  string memory result */\n      0x00\n        /* \"src/contracts-app/contracts/DataStorage.sol\":722:728  values */\n      dup4\n        /* \"src/contracts-app/contracts/DataStorage.sol\":729:730  0 */\n      0x00\n        /* \"src/contracts-app/contracts/DataStorage.sol\":722:731  values[0] */\n      dup2\n      mload\n      dup2\n      lt\n      tag_43\n      jumpi\n      tag_44\n      tag_45\n      jump\t// in\n    tag_44:\n    tag_43:\n      0x20\n      mul\n      0x20\n      add\n      add\n      mload\n        /* \"src/contracts-app/contracts/DataStorage.sol\":699:731  string memory result = values[0] */\n      swap1\n      pop\n        /* \"src/contracts-app/contracts/DataStorage.sol\":747:756  uint256 i */\n      0x00\n        /* \"src/contracts-app/contracts/DataStorage.sol\":759:760  1 */\n      0x01\n        /* \"src/contracts-app/contracts/DataStorage.sol\":747:760  uint256 i = 1 */\n      swap1\n      pop\n        /* \"src/contracts-app/contracts/DataStorage.sol\":742:876  for (uint256 i = 1; i < values.length; i++) {... */\n    tag_46:\n        /* \"src/contracts-app/contracts/DataStorage.sol\":766:772  values */\n      dup5\n        /* \"src/contracts-app/contracts/DataStorage.sol\":766:779  values.length */\n      mload\n        /* \"src/contracts-app/contracts/DataStorage.sol\":762:763  i */\n      dup2\n        /* \"src/contracts-app/contracts/DataStorage.sol\":762:779  i < values.length */\n      lt\n        /* \"src/contracts-app/contracts/DataStorage.sol\":742:876  for (uint256 i = 1; i < values.length; i++) {... */\n      iszero\n      tag_47\n      jumpi\n        /* \"src/contracts-app/contracts/DataStorage.sol\":834:840  result */\n      dup2\n        /* \"src/contracts-app/contracts/DataStorage.sol\":842:851  delimiter */\n      dup5\n        /* \"src/contracts-app/contracts/DataStorage.sol\":853:859  values */\n      dup7\n        /* \"src/contracts-app/contracts/DataStorage.sol\":860:861  i */\n      dup4\n        /* \"src/contracts-app/contracts/DataStorage.sol\":853:862  values[i] */\n      dup2\n      mload\n      dup2\n      lt\n      tag_49\n      jumpi\n      tag_50\n      tag_45\n      jump\t// in\n    tag_50:\n    tag_49:\n      0x20\n      mul\n      0x20\n      add\n      add\n      mload\n        /* \"src/contracts-app/contracts/DataStorage.sol\":817:863  abi.encodePacked(result, delimiter, values[i]) */\n      add(0x20, mload(0x40))\n      tag_51\n      swap4\n      swap3\n      swap2\n      swap1\n      tag_52\n      jump\t// in\n    tag_51:\n      mload(0x40)\n      0x20\n      dup2\n      dup4\n      sub\n      sub\n      dup2\n      mstore\n      swap1\n      0x40\n      mstore\n        /* \"src/contracts-app/contracts/DataStorage.sol\":801:864  result = string(abi.encodePacked(result, delimiter, values[i])) */\n      swap2\n      pop\n        /* \"src/contracts-app/contracts/DataStorage.sol\":781:784  i++ */\n      dup1\n      dup1\n      0x01\n      add\n      swap2\n      pop\n      pop\n        /* \"src/contracts-app/contracts/DataStorage.sol\":742:876  for (uint256 i = 1; i < values.length; i++) {... */\n      jump(tag_46)\n    tag_47:\n      pop\n        /* \"src/contracts-app/contracts/DataStorage.sol\":893:899  result */\n      dup1\n        /* \"src/contracts-app/contracts/DataStorage.sol\":886:899  return result */\n      swap2\n      pop\n      pop\n        /* \"src/contracts-app/contracts/DataStorage.sol\":513:907  function stringJoin(string[] memory values, string memory delimiter) public pure returns (string memory) {... */\n    tag_41:\n      swap3\n      swap2\n      pop\n      pop\n      jump\t// out\n        /* \"src/contracts-app/contracts/DataStorage.sol\":208:433  function addData(string memory newData) public {... */\n    tag_29:\n        /* \"src/contracts-app/contracts/DataStorage.sol\":266:276  storedData */\n      0x00\n        /* \"src/contracts-app/contracts/DataStorage.sol\":282:289  newData */\n      dup2\n        /* \"src/contracts-app/contracts/DataStorage.sol\":266:290  storedData.push(newData) */\n      swap1\n      dup1\n      0x01\n      dup2\n      sload\n      add\n      dup1\n      dup3\n      sstore\n      dup1\n      swap2\n      pop\n      pop\n      0x01\n      swap1\n      sub\n      swap1\n      0x00\n      mstore\n      keccak256(0x00, 0x20)\n      add\n      0x00\n      swap1\n      swap2\n      swap1\n      swap2\n      swap1\n      swap2\n      pop\n      swap1\n      dup2\n      tag_55\n      swap2\n      swap1\n      tag_56\n      jump\t// in\n    tag_55:\n      pop\n        /* \"src/contracts-app/contracts/DataStorage.sol\":301:327  string memory storedResult */\n      0x00\n        /* \"src/contracts-app/contracts/DataStorage.sol\":354:382  stringJoin(storedData, \", \") */\n      tag_57\n        /* \"src/contracts-app/contracts/DataStorage.sol\":365:375  storedData */\n      0x00\n        /* \"src/contracts-app/contracts/DataStorage.sol\":354:382  stringJoin(storedData, \", \") */\n      dup1\n      sload\n      dup1\n      0x20\n      mul\n      0x20\n      add\n      mload(0x40)\n      swap1\n      dup2\n      add\n      0x40\n      mstore\n      dup1\n      swap3\n      swap2\n      swap1\n      dup2\n      dup2\n      mstore\n      0x20\n      add\n      0x00\n      swap1\n    tag_58:\n      dup3\n      dup3\n      lt\n      iszero\n      tag_59\n      jumpi\n      dup4\n      dup3\n      swap1\n      0x00\n      mstore\n      keccak256(0x00, 0x20)\n      add\n      dup1\n      sload\n      tag_61\n      swap1\n      tag_33\n      jump\t// in\n    tag_61:\n      dup1\n      0x1f\n      add\n      0x20\n      dup1\n      swap2\n      div\n      mul\n      0x20\n      add\n      mload(0x40)\n      swap1\n      dup2\n      add\n      0x40\n      mstore\n      dup1\n      swap3\n      swap2\n      swap1\n      dup2\n      dup2\n      mstore\n      0x20\n      add\n      dup3\n      dup1\n      sload\n      tag_62\n      swap1\n      tag_33\n      jump\t// in\n    tag_62:\n      dup1\n      iszero\n      tag_63\n      jumpi\n      dup1\n      0x1f\n      lt\n      tag_64\n      jumpi\n      0x0100\n      dup1\n      dup4\n      sload\n      div\n      mul\n      dup4\n      mstore\n      swap2\n      0x20\n      add\n      swap2\n      jump(tag_63)\n    tag_64:\n      dup3\n      add\n      swap2\n      swap1\n      0x00\n      mstore\n      keccak256(0x00, 0x20)\n      swap1\n    tag_65:\n      dup2\n      sload\n      dup2\n      mstore\n      swap1\n      0x01\n      add\n      swap1\n      0x20\n      add\n      dup1\n      dup4\n      gt\n      tag_65\n      jumpi\n      dup3\n      swap1\n      sub\n      0x1f\n      and\n      dup3\n      add\n      swap2\n    tag_63:\n      pop\n      pop\n      pop\n      pop\n      pop\n      dup2\n      mstore\n      0x20\n      add\n      swap1\n      0x01\n      add\n      swap1\n      jump(tag_58)\n    tag_59:\n      pop\n      pop\n      pop\n      pop\n      mload(0x40)\n      dup1\n      0x40\n      add\n      0x40\n      mstore\n      dup1\n      0x02\n      dup2\n      mstore\n      0x20\n      add\n      0x2c20000000000000000000000000000000000000000000000000000000000000\n      dup2\n      mstore\n      pop\n        /* \"src/contracts-app/contracts/DataStorage.sol\":354:364  stringJoin */\n      tag_23\n        /* \"src/contracts-app/contracts/DataStorage.sol\":354:382  stringJoin(storedData, \", \") */\n      jump\t// in\n    tag_57:\n        /* \"src/contracts-app/contracts/DataStorage.sol\":337:383  abi.encodePacked(stringJoin(storedData, \", \")) */\n      add(0x20, mload(0x40))\n      tag_66\n      swap2\n      swap1\n      tag_67\n      jump\t// in\n    tag_66:\n      mload(0x40)\n      0x20\n      dup2\n      dup4\n      sub\n      sub\n      dup2\n      mstore\n      swap1\n      0x40\n      mstore\n        /* \"src/contracts-app/contracts/DataStorage.sol\":301:384  string memory storedResult = string(abi.encodePacked(stringJoin(storedData, \", \"))) */\n      swap1\n      pop\n        /* \"src/contracts-app/contracts/DataStorage.sol\":400:425  DataWritten(storedResult) */\n      0xdb857c149804efe92c8bd47d059285f40fdced374ca6c0687e2e33497ff2d0d1\n        /* \"src/contracts-app/contracts/DataStorage.sol\":412:424  storedResult */\n      dup2\n        /* \"src/contracts-app/contracts/DataStorage.sol\":400:425  DataWritten(storedResult) */\n      mload(0x40)\n      tag_68\n      swap2\n      swap1\n      tag_15\n      jump\t// in\n    tag_68:\n      mload(0x40)\n      dup1\n      swap2\n      sub\n      swap1\n      log1\n        /* \"src/contracts-app/contracts/DataStorage.sol\":255:433  {... */\n      pop\n        /* \"src/contracts-app/contracts/DataStorage.sol\":208:433  function addData(string memory newData) public {... */\n      pop\n      jump\t// out\n    tag_40:\n      pop\n      dup1\n      sload\n      0x00\n      dup3\n      sstore\n      swap1\n      0x00\n      mstore\n      keccak256(0x00, 0x20)\n      swap1\n      dup2\n      add\n      swap1\n      tag_70\n      swap2\n      swap1\n      tag_71\n      jump\t// in\n    tag_70:\n      pop\n      jump\t// out\n    tag_71:\n    tag_72:\n      dup1\n      dup3\n      gt\n      iszero\n      tag_73\n      jumpi\n      0x00\n      dup2\n      dup2\n      tag_74\n      swap2\n      swap1\n      tag_75\n      jump\t// in\n    tag_74:\n      pop\n      0x01\n      add\n      jump(tag_72)\n    tag_73:\n      pop\n      swap1\n      jump\t// out\n    tag_75:\n      pop\n      dup1\n      sload\n      tag_76\n      swap1\n      tag_33\n      jump\t// in\n    tag_76:\n      0x00\n      dup3\n      sstore\n      dup1\n      0x1f\n      lt\n      tag_78\n      jumpi\n      pop\n      jump(tag_77)\n    tag_78:\n      0x1f\n      add\n      0x20\n      swap1\n      div\n      swap1\n      0x00\n      mstore\n      keccak256(0x00, 0x20)\n      swap1\n      dup2\n      add\n      swap1\n      tag_79\n      swap2\n      swap1\n      tag_80\n      jump\t// in\n    tag_79:\n    tag_77:\n      pop\n      jump\t// out\n    tag_80:\n    tag_81:\n      dup1\n      dup3\n      gt\n      iszero\n      tag_82\n      jumpi\n      0x00\n      dup2\n      0x00\n      swap1\n      sstore\n      pop\n      0x01\n      add\n      jump(tag_81)\n    tag_82:\n      pop\n      swap1\n      jump\t// out\n        /* \"#utility.yul\":7:82   */\n    tag_83:\n        /* \"#utility.yul\":40:46   */\n      0x00\n        /* \"#utility.yul\":73:75   */\n      0x40\n        /* \"#utility.yul\":67:76   */\n      mload\n        /* \"#utility.yul\":57:76   */\n      swap1\n      pop\n        /* \"#utility.yul\":7:82   */\n      swap1\n      jump\t// out\n        /* \"#utility.yul\":88:205   */\n    tag_84:\n        /* \"#utility.yul\":197:198   */\n      0x00\n        /* \"#utility.yul\":194:195   */\n      dup1\n        /* \"#utility.yul\":187:199   */\n      revert\n        /* \"#utility.yul\":211:328   */\n    tag_85:\n        /* \"#utility.yul\":320:321   */\n      0x00\n        /* \"#utility.yul\":317:318   */\n      dup1\n        /* \"#utility.yul\":310:322   */\n      revert\n        /* \"#utility.yul\":334:411   */\n    tag_86:\n        /* \"#utility.yul\":371:378   */\n      0x00\n        /* \"#utility.yul\":400:405   */\n      dup2\n        /* \"#utility.yul\":389:405   */\n      swap1\n      pop\n        /* \"#utility.yul\":334:411   */\n      swap2\n      swap1\n      pop\n      jump\t// out\n        /* \"#utility.yul\":417:539   */\n    tag_87:\n        /* \"#utility.yul\":490:514   */\n      tag_131\n        /* \"#utility.yul\":508:513   */\n      dup2\n        /* \"#utility.yul\":490:514   */\n      tag_86\n      jump\t// in\n    tag_131:\n        /* \"#utility.yul\":483:488   */\n      dup2\n        /* \"#utility.yul\":480:515   */\n      eq\n        /* \"#utility.yul\":470:533   */\n      tag_132\n      jumpi\n        /* \"#utility.yul\":529:530   */\n      0x00\n        /* \"#utility.yul\":526:527   */\n      dup1\n        /* \"#utility.yul\":519:531   */\n      revert\n        /* \"#utility.yul\":470:533   */\n    tag_132:\n        /* \"#utility.yul\":417:539   */\n      pop\n      jump\t// out\n        /* \"#utility.yul\":545:684   */\n    tag_88:\n        /* \"#utility.yul\":591:596   */\n      0x00\n        /* \"#utility.yul\":629:635   */\n      dup2\n        /* \"#utility.yul\":616:636   */\n      calldataload\n        /* \"#utility.yul\":607:636   */\n      swap1\n      pop\n        /* \"#utility.yul\":645:678   */\n      tag_134\n        /* \"#utility.yul\":672:677   */\n      dup2\n        /* \"#utility.yul\":645:678   */\n      tag_87\n      jump\t// in\n    tag_134:\n        /* \"#utility.yul\":545:684   */\n      swap3\n      swap2\n      pop\n      pop\n      jump\t// out\n        /* \"#utility.yul\":690:1019   */\n    tag_12:\n        /* \"#utility.yul\":749:755   */\n      0x00\n        /* \"#utility.yul\":798:800   */\n      0x20\n        /* \"#utility.yul\":786:795   */\n      dup3\n        /* \"#utility.yul\":777:784   */\n      dup5\n        /* \"#utility.yul\":773:796   */\n      sub\n        /* \"#utility.yul\":769:801   */\n      slt\n        /* \"#utility.yul\":766:885   */\n      iszero\n      tag_136\n      jumpi\n        /* \"#utility.yul\":804:883   */\n      tag_137\n      tag_84\n      jump\t// in\n    tag_137:\n        /* \"#utility.yul\":766:885   */\n    tag_136:\n        /* \"#utility.yul\":924:925   */\n      0x00\n        /* \"#utility.yul\":949:1002   */\n      tag_138\n        /* \"#utility.yul\":994:1001   */\n      dup5\n        /* \"#utility.yul\":985:991   */\n      dup3\n        /* \"#utility.yul\":974:983   */\n      dup6\n        /* \"#utility.yul\":970:992   */\n      add\n        /* \"#utility.yul\":949:1002   */\n      tag_88\n      jump\t// in\n    tag_138:\n        /* \"#utility.yul\":939:1002   */\n      swap2\n      pop\n        /* \"#utility.yul\":895:1012   */\n      pop\n        /* \"#utility.yul\":690:1019   */\n      swap3\n      swap2\n      pop\n      pop\n      jump\t// out\n        /* \"#utility.yul\":1025:1124   */\n    tag_89:\n        /* \"#utility.yul\":1077:1083   */\n      0x00\n        /* \"#utility.yul\":1111:1116   */\n      dup2\n        /* \"#utility.yul\":1105:1117   */\n      mload\n        /* \"#utility.yul\":1095:1117   */\n      swap1\n      pop\n        /* \"#utility.yul\":1025:1124   */\n      swap2\n      swap1\n      pop\n      jump\t// out\n        /* \"#utility.yul\":1130:1299   */\n    tag_90:\n        /* \"#utility.yul\":1214:1225   */\n      0x00\n        /* \"#utility.yul\":1248:1254   */\n      dup3\n        /* \"#utility.yul\":1243:1246   */\n      dup3\n        /* \"#utility.yul\":1236:1255   */\n      mstore\n        /* \"#utility.yul\":1288:1292   */\n      0x20\n        /* \"#utility.yul\":1283:1286   */\n      dup3\n        /* \"#utility.yul\":1279:1293   */\n      add\n        /* \"#utility.yul\":1264:1293   */\n      swap1\n      pop\n        /* \"#utility.yul\":1130:1299   */\n      swap3\n      swap2\n      pop\n      pop\n      jump\t// out\n        /* \"#utility.yul\":1305:1551   */\n    tag_91:\n        /* \"#utility.yul\":1386:1387   */\n      0x00\n        /* \"#utility.yul\":1396:1509   */\n    tag_142:\n        /* \"#utility.yul\":1410:1416   */\n      dup4\n        /* \"#utility.yul\":1407:1408   */\n      dup2\n        /* \"#utility.yul\":1404:1417   */\n      lt\n        /* \"#utility.yul\":1396:1509   */\n      iszero\n      tag_144\n      jumpi\n        /* \"#utility.yul\":1495:1496   */\n      dup1\n        /* \"#utility.yul\":1490:1493   */\n      dup3\n        /* \"#utility.yul\":1486:1497   */\n      add\n        /* \"#utility.yul\":1480:1498   */\n      mload\n        /* \"#utility.yul\":1476:1477   */\n      dup2\n        /* \"#utility.yul\":1471:1474   */\n      dup5\n        /* \"#utility.yul\":1467:1478   */\n      add\n        /* \"#utility.yul\":1460:1499   */\n      mstore\n        /* \"#utility.yul\":1432:1434   */\n      0x20\n        /* \"#utility.yul\":1429:1430   */\n      dup2\n        /* \"#utility.yul\":1425:1435   */\n      add\n        /* \"#utility.yul\":1420:1435   */\n      swap1\n      pop\n        /* \"#utility.yul\":1396:1509   */\n      jump(tag_142)\n    tag_144:\n        /* \"#utility.yul\":1543:1544   */\n      0x00\n        /* \"#utility.yul\":1534:1540   */\n      dup5\n        /* \"#utility.yul\":1529:1532   */\n      dup5\n        /* \"#utility.yul\":1525:1541   */\n      add\n        /* \"#utility.yul\":1518:1545   */\n      mstore\n        /* \"#utility.yul\":1367:1551   */\n      pop\n        /* \"#utility.yul\":1305:1551   */\n      pop\n      pop\n      pop\n      jump\t// out\n        /* \"#utility.yul\":1557:1659   */\n    tag_92:\n        /* \"#utility.yul\":1598:1604   */\n      0x00\n        /* \"#utility.yul\":1649:1651   */\n      0x1f\n        /* \"#utility.yul\":1645:1652   */\n      not\n        /* \"#utility.yul\":1640:1642   */\n      0x1f\n        /* \"#utility.yul\":1633:1638   */\n      dup4\n        /* \"#utility.yul\":1629:1643   */\n      add\n        /* \"#utility.yul\":1625:1653   */\n      and\n        /* \"#utility.yul\":1615:1653   */\n      swap1\n      pop\n        /* \"#utility.yul\":1557:1659   */\n      swap2\n      swap1\n      pop\n      jump\t// out\n        /* \"#utility.yul\":1665:2042   */\n    tag_93:\n        /* \"#utility.yul\":1753:1756   */\n      0x00\n        /* \"#utility.yul\":1781:1820   */\n      tag_147\n        /* \"#utility.yul\":1814:1819   */\n      dup3\n        /* \"#utility.yul\":1781:1820   */\n      tag_89\n      jump\t// in\n    tag_147:\n        /* \"#utility.yul\":1836:1907   */\n      tag_148\n        /* \"#utility.yul\":1900:1906   */\n      dup2\n        /* \"#utility.yul\":1895:1898   */\n      dup6\n        /* \"#utility.yul\":1836:1907   */\n      tag_90\n      jump\t// in\n    tag_148:\n        /* \"#utility.yul\":1829:1907   */\n      swap4\n      pop\n        /* \"#utility.yul\":1916:1981   */\n      tag_149\n        /* \"#utility.yul\":1974:1980   */\n      dup2\n        /* \"#utility.yul\":1969:1972   */\n      dup6\n        /* \"#utility.yul\":1962:1966   */\n      0x20\n        /* \"#utility.yul\":1955:1960   */\n      dup7\n        /* \"#utility.yul\":1951:1967   */\n      add\n        /* \"#utility.yul\":1916:1981   */\n      tag_91\n      jump\t// in\n    tag_149:\n        /* \"#utility.yul\":2006:2035   */\n      tag_150\n        /* \"#utility.yul\":2028:2034   */\n      dup2\n        /* \"#utility.yul\":2006:2035   */\n      tag_92\n      jump\t// in\n    tag_150:\n        /* \"#utility.yul\":2001:2004   */\n      dup5\n        /* \"#utility.yul\":1997:2036   */\n      add\n        /* \"#utility.yul\":1990:2036   */\n      swap2\n      pop\n        /* \"#utility.yul\":1757:2042   */\n      pop\n        /* \"#utility.yul\":1665:2042   */\n      swap3\n      swap2\n      pop\n      pop\n      jump\t// out\n        /* \"#utility.yul\":2048:2361   */\n    tag_15:\n        /* \"#utility.yul\":2161:2165   */\n      0x00\n        /* \"#utility.yul\":2199:2201   */\n      0x20\n        /* \"#utility.yul\":2188:2197   */\n      dup3\n        /* \"#utility.yul\":2184:2202   */\n      add\n        /* \"#utility.yul\":2176:2202   */\n      swap1\n      pop\n        /* \"#utility.yul\":2248:2257   */\n      dup2\n        /* \"#utility.yul\":2242:2246   */\n      dup2\n        /* \"#utility.yul\":2238:2258   */\n      sub\n        /* \"#utility.yul\":2234:2235   */\n      0x00\n        /* \"#utility.yul\":2223:2232   */\n      dup4\n        /* \"#utility.yul\":2219:2236   */\n      add\n        /* \"#utility.yul\":2212:2259   */\n      mstore\n        /* \"#utility.yul\":2276:2354   */\n      tag_152\n        /* \"#utility.yul\":2349:2353   */\n      dup2\n        /* \"#utility.yul\":2340:2346   */\n      dup5\n        /* \"#utility.yul\":2276:2354   */\n      tag_93\n      jump\t// in\n    tag_152:\n        /* \"#utility.yul\":2268:2354   */\n      swap1\n      pop\n        /* \"#utility.yul\":2048:2361   */\n      swap3\n      swap2\n      pop\n      pop\n      jump\t// out\n        /* \"#utility.yul\":2367:2484   */\n    tag_94:\n        /* \"#utility.yul\":2476:2477   */\n      0x00\n        /* \"#utility.yul\":2473:2474   */\n      dup1\n        /* \"#utility.yul\":2466:2478   */\n      revert\n        /* \"#utility.yul\":2490:2670   */\n    tag_95:\n        /* \"#utility.yul\":2538:2615   */\n      0x4e487b7100000000000000000000000000000000000000000000000000000000\n        /* \"#utility.yul\":2535:2536   */\n      0x00\n        /* \"#utility.yul\":2528:2616   */\n      mstore\n        /* \"#utility.yul\":2635:2639   */\n      0x41\n        /* \"#utility.yul\":2632:2633   */\n      0x04\n        /* \"#utility.yul\":2625:2640   */\n      mstore\n        /* \"#utility.yul\":2659:2663   */\n      0x24\n        /* \"#utility.yul\":2656:2657   */\n      0x00\n        /* \"#utility.yul\":2649:2664   */\n      revert\n        /* \"#utility.yul\":2676:2957   */\n    tag_96:\n        /* \"#utility.yul\":2759:2786   */\n      tag_156\n        /* \"#utility.yul\":2781:2785   */\n      dup3\n        /* \"#utility.yul\":2759:2786   */\n      tag_92\n      jump\t// in\n    tag_156:\n        /* \"#utility.yul\":2751:2757   */\n      dup2\n        /* \"#utility.yul\":2747:2787   */\n      add\n        /* \"#utility.yul\":2889:2895   */\n      dup2\n        /* \"#utility.yul\":2877:2887   */\n      dup2\n        /* \"#utility.yul\":2874:2896   */\n      lt\n        /* \"#utility.yul\":2853:2871   */\n      0xffffffffffffffff\n        /* \"#utility.yul\":2841:2851   */\n      dup3\n        /* \"#utility.yul\":2838:2872   */\n      gt\n        /* \"#utility.yul\":2835:2897   */\n      or\n        /* \"#utility.yul\":2832:2920   */\n      iszero\n      tag_157\n      jumpi\n        /* \"#utility.yul\":2900:2918   */\n      tag_158\n      tag_95\n      jump\t// in\n    tag_158:\n        /* \"#utility.yul\":2832:2920   */\n    tag_157:\n        /* \"#utility.yul\":2940:2950   */\n      dup1\n        /* \"#utility.yul\":2936:2938   */\n      0x40\n        /* \"#utility.yul\":2929:2951   */\n      mstore\n        /* \"#utility.yul\":2719:2957   */\n      pop\n        /* \"#utility.yul\":2676:2957   */\n      pop\n      pop\n      jump\t// out\n        /* \"#utility.yul\":2963:3092   */\n    tag_97:\n        /* \"#utility.yul\":2997:3003   */\n      0x00\n        /* \"#utility.yul\":3024:3044   */\n      tag_160\n      tag_83\n      jump\t// in\n    tag_160:\n        /* \"#utility.yul\":3014:3044   */\n      swap1\n      pop\n        /* \"#utility.yul\":3053:3086   */\n      tag_161\n        /* \"#utility.yul\":3081:3085   */\n      dup3\n        /* \"#utility.yul\":3073:3079   */\n      dup3\n        /* \"#utility.yul\":3053:3086   */\n      tag_96\n      jump\t// in\n    tag_161:\n        /* \"#utility.yul\":2963:3092   */\n      swap2\n      swap1\n      pop\n      jump\t// out\n        /* \"#utility.yul\":3098:3419   */\n    tag_98:\n        /* \"#utility.yul\":3185:3189   */\n      0x00\n        /* \"#utility.yul\":3275:3293   */\n      0xffffffffffffffff\n        /* \"#utility.yul\":3267:3273   */\n      dup3\n        /* \"#utility.yul\":3264:3294   */\n      gt\n        /* \"#utility.yul\":3261:3317   */\n      iszero\n      tag_163\n      jumpi\n        /* \"#utility.yul\":3297:3315   */\n      tag_164\n      tag_95\n      jump\t// in\n    tag_164:\n        /* \"#utility.yul\":3261:3317   */\n    tag_163:\n        /* \"#utility.yul\":3347:3351   */\n      0x20\n        /* \"#utility.yul\":3339:3345   */\n      dup3\n        /* \"#utility.yul\":3335:3352   */\n      mul\n        /* \"#utility.yul\":3327:3352   */\n      swap1\n      pop\n        /* \"#utility.yul\":3407:3411   */\n      0x20\n        /* \"#utility.yul\":3401:3405   */\n      dup2\n        /* \"#utility.yul\":3397:3412   */\n      add\n        /* \"#utility.yul\":3389:3412   */\n      swap1\n      pop\n        /* \"#utility.yul\":3098:3419   */\n      swap2\n      swap1\n      pop\n      jump\t// out\n        /* \"#utility.yul\":3425:3542   */\n    tag_99:\n        /* \"#utility.yul\":3534:3535   */\n      0x00\n        /* \"#utility.yul\":3531:3532   */\n      dup1\n        /* \"#utility.yul\":3524:3536   */\n      revert\n        /* \"#utility.yul\":3548:3665   */\n    tag_100:\n        /* \"#utility.yul\":3657:3658   */\n      0x00\n        /* \"#utility.yul\":3654:3655   */\n      dup1\n        /* \"#utility.yul\":3647:3659   */\n      revert\n        /* \"#utility.yul\":3671:3979   */\n    tag_101:\n        /* \"#utility.yul\":3733:3737   */\n      0x00\n        /* \"#utility.yul\":3823:3841   */\n      0xffffffffffffffff\n        /* \"#utility.yul\":3815:3821   */\n      dup3\n        /* \"#utility.yul\":3812:3842   */\n      gt\n        /* \"#utility.yul\":3809:3865   */\n      iszero\n      tag_168\n      jumpi\n        /* \"#utility.yul\":3845:3863   */\n      tag_169\n      tag_95\n      jump\t// in\n    tag_169:\n        /* \"#utility.yul\":3809:3865   */\n    tag_168:\n        /* \"#utility.yul\":3883:3912   */\n      tag_170\n        /* \"#utility.yul\":3905:3911   */\n      dup3\n        /* \"#utility.yul\":3883:3912   */\n      tag_92\n      jump\t// in\n    tag_170:\n        /* \"#utility.yul\":3875:3912   */\n      swap1\n      pop\n        /* \"#utility.yul\":3967:3971   */\n      0x20\n        /* \"#utility.yul\":3961:3965   */\n      dup2\n        /* \"#utility.yul\":3957:3972   */\n      add\n        /* \"#utility.yul\":3949:3972   */\n      swap1\n      pop\n        /* \"#utility.yul\":3671:3979   */\n      swap2\n      swap1\n      pop\n      jump\t// out\n        /* \"#utility.yul\":3985:4131   */\n    tag_102:\n        /* \"#utility.yul\":4082:4088   */\n      dup3\n        /* \"#utility.yul\":4077:4080   */\n      dup2\n        /* \"#utility.yul\":4072:4075   */\n      dup4\n        /* \"#utility.yul\":4059:4089   */\n      calldatacopy\n        /* \"#utility.yul\":4123:4124   */\n      0x00\n        /* \"#utility.yul\":4114:4120   */\n      dup4\n        /* \"#utility.yul\":4109:4112   */\n      dup4\n        /* \"#utility.yul\":4105:4121   */\n      add\n        /* \"#utility.yul\":4098:4125   */\n      mstore\n        /* \"#utility.yul\":3985:4131   */\n      pop\n      pop\n      pop\n      jump\t// out\n        /* \"#utility.yul\":4137:4562   */\n    tag_103:\n        /* \"#utility.yul\":4215:4220   */\n      0x00\n        /* \"#utility.yul\":4240:4306   */\n      tag_173\n        /* \"#utility.yul\":4256:4305   */\n      tag_174\n        /* \"#utility.yul\":4298:4304   */\n      dup5\n        /* \"#utility.yul\":4256:4305   */\n      tag_101\n      jump\t// in\n    tag_174:\n        /* \"#utility.yul\":4240:4306   */\n      tag_97\n      jump\t// in\n    tag_173:\n        /* \"#utility.yul\":4231:4306   */\n      swap1\n      pop\n        /* \"#utility.yul\":4329:4335   */\n      dup3\n        /* \"#utility.yul\":4322:4327   */\n      dup2\n        /* \"#utility.yul\":4315:4336   */\n      mstore\n        /* \"#utility.yul\":4367:4371   */\n      0x20\n        /* \"#utility.yul\":4360:4365   */\n      dup2\n        /* \"#utility.yul\":4356:4372   */\n      add\n        /* \"#utility.yul\":4405:4408   */\n      dup5\n        /* \"#utility.yul\":4396:4402   */\n      dup5\n        /* \"#utility.yul\":4391:4394   */\n      dup5\n        /* \"#utility.yul\":4387:4403   */\n      add\n        /* \"#utility.yul\":4384:4409   */\n      gt\n        /* \"#utility.yul\":4381:4493   */\n      iszero\n      tag_175\n      jumpi\n        /* \"#utility.yul\":4412:4491   */\n      tag_176\n      tag_100\n      jump\t// in\n    tag_176:\n        /* \"#utility.yul\":4381:4493   */\n    tag_175:\n        /* \"#utility.yul\":4502:4556   */\n      tag_177\n        /* \"#utility.yul\":4549:4555   */\n      dup5\n        /* \"#utility.yul\":4544:4547   */\n      dup3\n        /* \"#utility.yul\":4539:4542   */\n      dup6\n        /* \"#utility.yul\":4502:4556   */\n      tag_102\n      jump\t// in\n    tag_177:\n        /* \"#utility.yul\":4221:4562   */\n      pop\n        /* \"#utility.yul\":4137:4562   */\n      swap4\n      swap3\n      pop\n      pop\n      pop\n      jump\t// out\n        /* \"#utility.yul\":4582:4922   */\n    tag_104:\n        /* \"#utility.yul\":4638:4643   */\n      0x00\n        /* \"#utility.yul\":4687:4690   */\n      dup3\n        /* \"#utility.yul\":4680:4684   */\n      0x1f\n        /* \"#utility.yul\":4672:4678   */\n      dup4\n        /* \"#utility.yul\":4668:4685   */\n      add\n        /* \"#utility.yul\":4664:4691   */\n      slt\n        /* \"#utility.yul\":4654:4776   */\n      tag_179\n      jumpi\n        /* \"#utility.yul\":4695:4774   */\n      tag_180\n      tag_94\n      jump\t// in\n    tag_180:\n        /* \"#utility.yul\":4654:4776   */\n    tag_179:\n        /* \"#utility.yul\":4812:4818   */\n      dup2\n        /* \"#utility.yul\":4799:4819   */\n      calldataload\n        /* \"#utility.yul\":4837:4916   */\n      tag_181\n        /* \"#utility.yul\":4912:4915   */\n      dup5\n        /* \"#utility.yul\":4904:4910   */\n      dup3\n        /* \"#utility.yul\":4897:4901   */\n      0x20\n        /* \"#utility.yul\":4889:4895   */\n      dup7\n        /* \"#utility.yul\":4885:4902   */\n      add\n        /* \"#utility.yul\":4837:4916   */\n      tag_103\n      jump\t// in\n    tag_181:\n        /* \"#utility.yul\":4828:4916   */\n      swap2\n      pop\n        /* \"#utility.yul\":4644:4922   */\n      pop\n        /* \"#utility.yul\":4582:4922   */\n      swap3\n      swap2\n      pop\n      pop\n      jump\t// out\n        /* \"#utility.yul\":4944:5889   */\n    tag_105:\n        /* \"#utility.yul\":5050:5055   */\n      0x00\n        /* \"#utility.yul\":5075:5166   */\n      tag_183\n        /* \"#utility.yul\":5091:5165   */\n      tag_184\n        /* \"#utility.yul\":5158:5164   */\n      dup5\n        /* \"#utility.yul\":5091:5165   */\n      tag_98\n      jump\t// in\n    tag_184:\n        /* \"#utility.yul\":5075:5166   */\n      tag_97\n      jump\t// in\n    tag_183:\n        /* \"#utility.yul\":5066:5166   */\n      swap1\n      pop\n        /* \"#utility.yul\":5186:5191   */\n      dup1\n        /* \"#utility.yul\":5215:5221   */\n      dup4\n        /* \"#utility.yul\":5208:5213   */\n      dup3\n        /* \"#utility.yul\":5201:5222   */\n      mstore\n        /* \"#utility.yul\":5249:5253   */\n      0x20\n        /* \"#utility.yul\":5242:5247   */\n      dup3\n        /* \"#utility.yul\":5238:5254   */\n      add\n        /* \"#utility.yul\":5231:5254   */\n      swap1\n      pop\n        /* \"#utility.yul\":5302:5306   */\n      0x20\n        /* \"#utility.yul\":5294:5300   */\n      dup5\n        /* \"#utility.yul\":5290:5307   */\n      mul\n        /* \"#utility.yul\":5282:5288   */\n      dup4\n        /* \"#utility.yul\":5278:5308   */\n      add\n        /* \"#utility.yul\":5331:5334   */\n      dup6\n        /* \"#utility.yul\":5323:5329   */\n      dup2\n        /* \"#utility.yul\":5320:5335   */\n      gt\n        /* \"#utility.yul\":5317:5439   */\n      iszero\n      tag_185\n      jumpi\n        /* \"#utility.yul\":5350:5429   */\n      tag_186\n      tag_99\n      jump\t// in\n    tag_186:\n        /* \"#utility.yul\":5317:5439   */\n    tag_185:\n        /* \"#utility.yul\":5465:5471   */\n      dup4\n        /* \"#utility.yul\":5448:5883   */\n    tag_187:\n        /* \"#utility.yul\":5482:5488   */\n      dup2\n        /* \"#utility.yul\":5477:5480   */\n      dup2\n        /* \"#utility.yul\":5474:5489   */\n      lt\n        /* \"#utility.yul\":5448:5883   */\n      iszero\n      tag_189\n      jumpi\n        /* \"#utility.yul\":5571:5574   */\n      dup1\n        /* \"#utility.yul\":5558:5575   */\n      calldataload\n        /* \"#utility.yul\":5607:5625   */\n      0xffffffffffffffff\n        /* \"#utility.yul\":5594:5605   */\n      dup2\n        /* \"#utility.yul\":5591:5626   */\n      gt\n        /* \"#utility.yul\":5588:5710   */\n      iszero\n      tag_190\n      jumpi\n        /* \"#utility.yul\":5629:5708   */\n      tag_191\n      tag_94\n      jump\t// in\n    tag_191:\n        /* \"#utility.yul\":5588:5710   */\n    tag_190:\n        /* \"#utility.yul\":5753:5764   */\n      dup1\n        /* \"#utility.yul\":5745:5751   */\n      dup7\n        /* \"#utility.yul\":5741:5765   */\n      add\n        /* \"#utility.yul\":5791:5838   */\n      tag_192\n        /* \"#utility.yul\":5834:5837   */\n      dup10\n        /* \"#utility.yul\":5822:5832   */\n      dup3\n        /* \"#utility.yul\":5791:5838   */\n      tag_104\n      jump\t// in\n    tag_192:\n        /* \"#utility.yul\":5786:5789   */\n      dup6\n        /* \"#utility.yul\":5779:5839   */\n      mstore\n        /* \"#utility.yul\":5868:5872   */\n      0x20\n        /* \"#utility.yul\":5863:5866   */\n      dup6\n        /* \"#utility.yul\":5859:5873   */\n      add\n        /* \"#utility.yul\":5852:5873   */\n      swap5\n      pop\n        /* \"#utility.yul\":5524:5883   */\n      pop\n      pop\n        /* \"#utility.yul\":5508:5512   */\n      0x20\n        /* \"#utility.yul\":5503:5506   */\n      dup2\n        /* \"#utility.yul\":5499:5513   */\n      add\n        /* \"#utility.yul\":5492:5513   */\n      swap1\n      pop\n        /* \"#utility.yul\":5448:5883   */\n      jump(tag_187)\n    tag_189:\n        /* \"#utility.yul\":5452:5473   */\n      pop\n        /* \"#utility.yul\":5056:5889   */\n      pop\n      pop\n        /* \"#utility.yul\":4944:5889   */\n      swap4\n      swap3\n      pop\n      pop\n      pop\n      jump\t// out\n        /* \"#utility.yul\":5911:6301   */\n    tag_106:\n        /* \"#utility.yul\":5992:5997   */\n      0x00\n        /* \"#utility.yul\":6041:6044   */\n      dup3\n        /* \"#utility.yul\":6034:6038   */\n      0x1f\n        /* \"#utility.yul\":6026:6032   */\n      dup4\n        /* \"#utility.yul\":6022:6039   */\n      add\n        /* \"#utility.yul\":6018:6045   */\n      slt\n        /* \"#utility.yul\":6008:6130   */\n      tag_194\n      jumpi\n        /* \"#utility.yul\":6049:6128   */\n      tag_195\n      tag_94\n      jump\t// in\n    tag_195:\n        /* \"#utility.yul\":6008:6130   */\n    tag_194:\n        /* \"#utility.yul\":6166:6172   */\n      dup2\n        /* \"#utility.yul\":6153:6173   */\n      calldataload\n        /* \"#utility.yul\":6191:6295   */\n      tag_196\n        /* \"#utility.yul\":6291:6294   */\n      dup5\n        /* \"#utility.yul\":6283:6289   */\n      dup3\n        /* \"#utility.yul\":6276:6280   */\n      0x20\n        /* \"#utility.yul\":6268:6274   */\n      dup7\n        /* \"#utility.yul\":6264:6281   */\n      add\n        /* \"#utility.yul\":6191:6295   */\n      tag_105\n      jump\t// in\n    tag_196:\n        /* \"#utility.yul\":6182:6295   */\n      swap2\n      pop\n        /* \"#utility.yul\":5998:6301   */\n      pop\n        /* \"#utility.yul\":5911:6301   */\n      swap3\n      swap2\n      pop\n      pop\n      jump\t// out\n        /* \"#utility.yul\":6307:7191   */\n    tag_22:\n        /* \"#utility.yul\":6420:6426   */\n      0x00\n        /* \"#utility.yul\":6428:6434   */\n      dup1\n        /* \"#utility.yul\":6477:6479   */\n      0x40\n        /* \"#utility.yul\":6465:6474   */\n      dup4\n        /* \"#utility.yul\":6456:6463   */\n      dup6\n        /* \"#utility.yul\":6452:6475   */\n      sub\n        /* \"#utility.yul\":6448:6480   */\n      slt\n        /* \"#utility.yul\":6445:6564   */\n      iszero\n      tag_198\n      jumpi\n        /* \"#utility.yul\":6483:6562   */\n      tag_199\n      tag_84\n      jump\t// in\n    tag_199:\n        /* \"#utility.yul\":6445:6564   */\n    tag_198:\n        /* \"#utility.yul\":6631:6632   */\n      0x00\n        /* \"#utility.yul\":6620:6629   */\n      dup4\n        /* \"#utility.yul\":6616:6633   */\n      add\n        /* \"#utility.yul\":6603:6634   */\n      calldataload\n        /* \"#utility.yul\":6661:6679   */\n      0xffffffffffffffff\n        /* \"#utility.yul\":6653:6659   */\n      dup2\n        /* \"#utility.yul\":6650:6680   */\n      gt\n        /* \"#utility.yul\":6647:6764   */\n      iszero\n      tag_200\n      jumpi\n        /* \"#utility.yul\":6683:6762   */\n      tag_201\n      tag_85\n      jump\t// in\n    tag_201:\n        /* \"#utility.yul\":6647:6764   */\n    tag_200:\n        /* \"#utility.yul\":6788:6876   */\n      tag_202\n        /* \"#utility.yul\":6868:6875   */\n      dup6\n        /* \"#utility.yul\":6859:6865   */\n      dup3\n        /* \"#utility.yul\":6848:6857   */\n      dup7\n        /* \"#utility.yul\":6844:6866   */\n      add\n        /* \"#utility.yul\":6788:6876   */\n      tag_106\n      jump\t// in\n    tag_202:\n        /* \"#utility.yul\":6778:6876   */\n      swap3\n      pop\n        /* \"#utility.yul\":6574:6886   */\n      pop\n        /* \"#utility.yul\":6953:6955   */\n      0x20\n        /* \"#utility.yul\":6942:6951   */\n      dup4\n        /* \"#utility.yul\":6938:6956   */\n      add\n        /* \"#utility.yul\":6925:6957   */\n      calldataload\n        /* \"#utility.yul\":6984:7002   */\n      0xffffffffffffffff\n        /* \"#utility.yul\":6976:6982   */\n      dup2\n        /* \"#utility.yul\":6973:7003   */\n      gt\n        /* \"#utility.yul\":6970:7087   */\n      iszero\n      tag_203\n      jumpi\n        /* \"#utility.yul\":7006:7085   */\n      tag_204\n      tag_85\n      jump\t// in\n    tag_204:\n        /* \"#utility.yul\":6970:7087   */\n    tag_203:\n        /* \"#utility.yul\":7111:7174   */\n      tag_205\n        /* \"#utility.yul\":7166:7173   */\n      dup6\n        /* \"#utility.yul\":7157:7163   */\n      dup3\n        /* \"#utility.yul\":7146:7155   */\n      dup7\n        /* \"#utility.yul\":7142:7164   */\n      add\n        /* \"#utility.yul\":7111:7174   */\n      tag_104\n      jump\t// in\n    tag_205:\n        /* \"#utility.yul\":7101:7174   */\n      swap2\n      pop\n        /* \"#utility.yul\":6896:7184   */\n      pop\n        /* \"#utility.yul\":6307:7191   */\n      swap3\n      pop\n      swap3\n      swap1\n      pop\n      jump\t// out\n        /* \"#utility.yul\":7197:7706   */\n    tag_28:\n        /* \"#utility.yul\":7266:7272   */\n      0x00\n        /* \"#utility.yul\":7315:7317   */\n      0x20\n        /* \"#utility.yul\":7303:7312   */\n      dup3\n        /* \"#utility.yul\":7294:7301   */\n      dup5\n        /* \"#utility.yul\":7290:7313   */\n      sub\n        /* \"#utility.yul\":7286:7318   */\n      slt\n        /* \"#utility.yul\":7283:7402   */\n      iszero\n      tag_207\n      jumpi\n        /* \"#utility.yul\":7321:7400   */\n      tag_208\n      tag_84\n      jump\t// in\n    tag_208:\n        /* \"#utility.yul\":7283:7402   */\n    tag_207:\n        /* \"#utility.yul\":7469:7470   */\n      0x00\n        /* \"#utility.yul\":7458:7467   */\n      dup3\n        /* \"#utility.yul\":7454:7471   */\n      add\n        /* \"#utility.yul\":7441:7472   */\n      calldataload\n        /* \"#utility.yul\":7499:7517   */\n      0xffffffffffffffff\n        /* \"#utility.yul\":7491:7497   */\n      dup2\n        /* \"#utility.yul\":7488:7518   */\n      gt\n        /* \"#utility.yul\":7485:7602   */\n      iszero\n      tag_209\n      jumpi\n        /* \"#utility.yul\":7521:7600   */\n      tag_210\n      tag_85\n      jump\t// in\n    tag_210:\n        /* \"#utility.yul\":7485:7602   */\n    tag_209:\n        /* \"#utility.yul\":7626:7689   */\n      tag_211\n        /* \"#utility.yul\":7681:7688   */\n      dup5\n        /* \"#utility.yul\":7672:7678   */\n      dup3\n        /* \"#utility.yul\":7661:7670   */\n      dup6\n        /* \"#utility.yul\":7657:7679   */\n      add\n        /* \"#utility.yul\":7626:7689   */\n      tag_104\n      jump\t// in\n    tag_211:\n        /* \"#utility.yul\":7616:7689   */\n      swap2\n      pop\n        /* \"#utility.yul\":7412:7699   */\n      pop\n        /* \"#utility.yul\":7197:7706   */\n      swap3\n      swap2\n      pop\n      pop\n      jump\t// out\n        /* \"#utility.yul\":7712:7892   */\n    tag_107:\n        /* \"#utility.yul\":7760:7837   */\n      0x4e487b7100000000000000000000000000000000000000000000000000000000\n        /* \"#utility.yul\":7757:7758   */\n      0x00\n        /* \"#utility.yul\":7750:7838   */\n      mstore\n        /* \"#utility.yul\":7857:7861   */\n      0x22\n        /* \"#utility.yul\":7854:7855   */\n      0x04\n        /* \"#utility.yul\":7847:7862   */\n      mstore\n        /* \"#utility.yul\":7881:7885   */\n      0x24\n        /* \"#utility.yul\":7878:7879   */\n      0x00\n        /* \"#utility.yul\":7871:7886   */\n      revert\n        /* \"#utility.yul\":7898:8218   */\n    tag_33:\n        /* \"#utility.yul\":7942:7948   */\n      0x00\n        /* \"#utility.yul\":7979:7980   */\n      0x02\n        /* \"#utility.yul\":7973:7977   */\n      dup3\n        /* \"#utility.yul\":7969:7981   */\n      div\n        /* \"#utility.yul\":7959:7981   */\n      swap1\n      pop\n        /* \"#utility.yul\":8026:8027   */\n      0x01\n        /* \"#utility.yul\":8020:8024   */\n      dup3\n        /* \"#utility.yul\":8016:8028   */\n      and\n        /* \"#utility.yul\":8047:8065   */\n      dup1\n        /* \"#utility.yul\":8037:8118   */\n      tag_214\n      jumpi\n        /* \"#utility.yul\":8103:8107   */\n      0x7f\n        /* \"#utility.yul\":8095:8101   */\n      dup3\n        /* \"#utility.yul\":8091:8108   */\n      and\n        /* \"#utility.yul\":8081:8108   */\n      swap2\n      pop\n        /* \"#utility.yul\":8037:8118   */\n    tag_214:\n        /* \"#utility.yul\":8165:8167   */\n      0x20\n        /* \"#utility.yul\":8157:8163   */\n      dup3\n        /* \"#utility.yul\":8154:8168   */\n      lt\n        /* \"#utility.yul\":8134:8152   */\n      dup2\n        /* \"#utility.yul\":8131:8169   */\n      sub\n        /* \"#utility.yul\":8128:8212   */\n      tag_215\n      jumpi\n        /* \"#utility.yul\":8184:8202   */\n      tag_216\n      tag_107\n      jump\t// in\n    tag_216:\n        /* \"#utility.yul\":8128:8212   */\n    tag_215:\n        /* \"#utility.yul\":7949:8218   */\n      pop\n        /* \"#utility.yul\":7898:8218   */\n      swap2\n      swap1\n      pop\n      jump\t// out\n        /* \"#utility.yul\":8224:8404   */\n    tag_45:\n        /* \"#utility.yul\":8272:8349   */\n      0x4e487b7100000000000000000000000000000000000000000000000000000000\n        /* \"#utility.yul\":8269:8270   */\n      0x00\n        /* \"#utility.yul\":8262:8350   */\n      mstore\n        /* \"#utility.yul\":8369:8373   */\n      0x32\n        /* \"#utility.yul\":8366:8367   */\n      0x04\n        /* \"#utility.yul\":8359:8374   */\n      mstore\n        /* \"#utility.yul\":8393:8397   */\n      0x24\n        /* \"#utility.yul\":8390:8391   */\n      0x00\n        /* \"#utility.yul\":8383:8398   */\n      revert\n        /* \"#utility.yul\":8410:8558   */\n    tag_108:\n        /* \"#utility.yul\":8512:8523   */\n      0x00\n        /* \"#utility.yul\":8549:8552   */\n      dup2\n        /* \"#utility.yul\":8534:8552   */\n      swap1\n      pop\n        /* \"#utility.yul\":8410:8558   */\n      swap3\n      swap2\n      pop\n      pop\n      jump\t// out\n        /* \"#utility.yul\":8564:8954   */\n    tag_109:\n        /* \"#utility.yul\":8670:8673   */\n      0x00\n        /* \"#utility.yul\":8698:8737   */\n      tag_220\n        /* \"#utility.yul\":8731:8736   */\n      dup3\n        /* \"#utility.yul\":8698:8737   */\n      tag_89\n      jump\t// in\n    tag_220:\n        /* \"#utility.yul\":8753:8842   */\n      tag_221\n        /* \"#utility.yul\":8835:8841   */\n      dup2\n        /* \"#utility.yul\":8830:8833   */\n      dup6\n        /* \"#utility.yul\":8753:8842   */\n      tag_108\n      jump\t// in\n    tag_221:\n        /* \"#utility.yul\":8746:8842   */\n      swap4\n      pop\n        /* \"#utility.yul\":8851:8916   */\n      tag_222\n        /* \"#utility.yul\":8909:8915   */\n      dup2\n        /* \"#utility.yul\":8904:8907   */\n      dup6\n        /* \"#utility.yul\":8897:8901   */\n      0x20\n        /* \"#utility.yul\":8890:8895   */\n      dup7\n        /* \"#utility.yul\":8886:8902   */\n      add\n        /* \"#utility.yul\":8851:8916   */\n      tag_91\n      jump\t// in\n    tag_222:\n        /* \"#utility.yul\":8941:8947   */\n      dup1\n        /* \"#utility.yul\":8936:8939   */\n      dup5\n        /* \"#utility.yul\":8932:8948   */\n      add\n        /* \"#utility.yul\":8925:8948   */\n      swap2\n      pop\n        /* \"#utility.yul\":8674:8954   */\n      pop\n        /* \"#utility.yul\":8564:8954   */\n      swap3\n      swap2\n      pop\n      pop\n      jump\t// out\n        /* \"#utility.yul\":8960:9555   */\n    tag_52:\n        /* \"#utility.yul\":9188:9191   */\n      0x00\n        /* \"#utility.yul\":9210:9305   */\n      tag_224\n        /* \"#utility.yul\":9301:9304   */\n      dup3\n        /* \"#utility.yul\":9292:9298   */\n      dup7\n        /* \"#utility.yul\":9210:9305   */\n      tag_109\n      jump\t// in\n    tag_224:\n        /* \"#utility.yul\":9203:9305   */\n      swap2\n      pop\n        /* \"#utility.yul\":9322:9417   */\n      tag_225\n        /* \"#utility.yul\":9413:9416   */\n      dup3\n        /* \"#utility.yul\":9404:9410   */\n      dup6\n        /* \"#utility.yul\":9322:9417   */\n      tag_109\n      jump\t// in\n    tag_225:\n        /* \"#utility.yul\":9315:9417   */\n      swap2\n      pop\n        /* \"#utility.yul\":9434:9529   */\n      tag_226\n        /* \"#utility.yul\":9525:9528   */\n      dup3\n        /* \"#utility.yul\":9516:9522   */\n      dup5\n        /* \"#utility.yul\":9434:9529   */\n      tag_109\n      jump\t// in\n    tag_226:\n        /* \"#utility.yul\":9427:9529   */\n      swap2\n      pop\n        /* \"#utility.yul\":9546:9549   */\n      dup2\n        /* \"#utility.yul\":9539:9549   */\n      swap1\n      pop\n        /* \"#utility.yul\":8960:9555   */\n      swap5\n      swap4\n      pop\n      pop\n      pop\n      pop\n      jump\t// out\n        /* \"#utility.yul\":9561:9702   */\n    tag_110:\n        /* \"#utility.yul\":9610:9614   */\n      0x00\n        /* \"#utility.yul\":9633:9636   */\n      dup2\n        /* \"#utility.yul\":9625:9636   */\n      swap1\n      pop\n        /* \"#utility.yul\":9656:9659   */\n      dup2\n        /* \"#utility.yul\":9653:9654   */\n      0x00\n        /* \"#utility.yul\":9646:9660   */\n      mstore\n        /* \"#utility.yul\":9690:9694   */\n      0x20\n        /* \"#utility.yul\":9687:9688   */\n      0x00\n        /* \"#utility.yul\":9677:9695   */\n      keccak256\n        /* \"#utility.yul\":9669:9695   */\n      swap1\n      pop\n        /* \"#utility.yul\":9561:9702   */\n      swap2\n      swap1\n      pop\n      jump\t// out\n        /* \"#utility.yul\":9708:9801   */\n    tag_111:\n        /* \"#utility.yul\":9745:9751   */\n      0x00\n        /* \"#utility.yul\":9792:9794   */\n      0x20\n        /* \"#utility.yul\":9787:9789   */\n      0x1f\n        /* \"#utility.yul\":9780:9785   */\n      dup4\n        /* \"#utility.yul\":9776:9790   */\n      add\n        /* \"#utility.yul\":9772:9795   */\n      div\n        /* \"#utility.yul\":9762:9795   */\n      swap1\n      pop\n        /* \"#utility.yul\":9708:9801   */\n      swap2\n      swap1\n      pop\n      jump\t// out\n        /* \"#utility.yul\":9807:9914   */\n    tag_112:\n        /* \"#utility.yul\":9851:9859   */\n      0x00\n        /* \"#utility.yul\":9901:9906   */\n      dup3\n        /* \"#utility.yul\":9895:9899   */\n      dup3\n        /* \"#utility.yul\":9891:9907   */\n      shl\n        /* \"#utility.yul\":9870:9907   */\n      swap1\n      pop\n        /* \"#utility.yul\":9807:9914   */\n      swap3\n      swap2\n      pop\n      pop\n      jump\t// out\n        /* \"#utility.yul\":9920:10313   */\n    tag_113:\n        /* \"#utility.yul\":9989:9995   */\n      0x00\n        /* \"#utility.yul\":10039:10040   */\n      0x08\n        /* \"#utility.yul\":10027:10037   */\n      dup4\n        /* \"#utility.yul\":10023:10041   */\n      mul\n        /* \"#utility.yul\":10062:10159   */\n      tag_231\n        /* \"#utility.yul\":10092:10158   */\n      0xffffffffffffffffffffffffffffffffffffffffffffffffffffffffffffffff\n        /* \"#utility.yul\":10081:10090   */\n      dup3\n        /* \"#utility.yul\":10062:10159   */\n      tag_112\n      jump\t// in\n    tag_231:\n        /* \"#utility.yul\":10180:10219   */\n      tag_232\n        /* \"#utility.yul\":10210:10218   */\n      dup7\n        /* \"#utility.yul\":10199:10208   */\n      dup4\n        /* \"#utility.yul\":10180:10219   */\n      tag_112\n      jump\t// in\n    tag_232:\n        /* \"#utility.yul\":10168:10219   */\n      swap6\n      pop\n        /* \"#utility.yul\":10252:10256   */\n      dup1\n        /* \"#utility.yul\":10248:10257   */\n      not\n        /* \"#utility.yul\":10241:10246   */\n      dup5\n        /* \"#utility.yul\":10237:10258   */\n      and\n        /* \"#utility.yul\":10228:10258   */\n      swap4\n      pop\n        /* \"#utility.yul\":10301:10305   */\n      dup1\n        /* \"#utility.yul\":10291:10299   */\n      dup7\n        /* \"#utility.yul\":10287:10306   */\n      and\n        /* \"#utility.yul\":10280:10285   */\n      dup5\n        /* \"#utility.yul\":10277:10307   */\n      or\n        /* \"#utility.yul\":10267:10307   */\n      swap3\n      pop\n        /* \"#utility.yul\":9996:10313   */\n      pop\n      pop\n        /* \"#utility.yul\":9920:10313   */\n      swap4\n      swap3\n      pop\n      pop\n      pop\n      jump\t// out\n        /* \"#utility.yul\":10319:10379   */\n    tag_114:\n        /* \"#utility.yul\":10347:10350   */\n      0x00\n        /* \"#utility.yul\":10368:10373   */\n      dup2\n        /* \"#utility.yul\":10361:10373   */\n      swap1\n      pop\n        /* \"#utility.yul\":10319:10379   */\n      swap2\n      swap1\n      pop\n      jump\t// out\n        /* \"#utility.yul\":10385:10527   */\n    tag_115:\n        /* \"#utility.yul\":10435:10444   */\n      0x00\n        /* \"#utility.yul\":10468:10521   */\n      tag_235\n        /* \"#utility.yul\":10486:10520   */\n      tag_236\n        /* \"#utility.yul\":10495:10519   */\n      tag_237\n        /* \"#utility.yul\":10513:10518   */\n      dup5\n        /* \"#utility.yul\":10495:10519   */\n      tag_86\n      jump\t// in\n    tag_237:\n        /* \"#utility.yul\":10486:10520   */\n      tag_114\n      jump\t// in\n    tag_236:\n        /* \"#utility.yul\":10468:10521   */\n      tag_86\n      jump\t// in\n    tag_235:\n        /* \"#utility.yul\":10455:10521   */\n      swap1\n      pop\n        /* \"#utility.yul\":10385:10527   */\n      swap2\n      swap1\n      pop\n      jump\t// out\n        /* \"#utility.yul\":10533:10608   */\n    tag_116:\n        /* \"#utility.yul\":10576:10579   */\n      0x00\n        /* \"#utility.yul\":10597:10602   */\n      dup2\n        /* \"#utility.yul\":10590:10602   */\n      swap1\n      pop\n        /* \"#utility.yul\":10533:10608   */\n      swap2\n      swap1\n      pop\n      jump\t// out\n        /* \"#utility.yul\":10614:10883   */\n    tag_117:\n        /* \"#utility.yul\":10724:10763   */\n      tag_240\n        /* \"#utility.yul\":10755:10762   */\n      dup4\n        /* \"#utility.yul\":10724:10763   */\n      tag_115\n      jump\t// in\n    tag_240:\n        /* \"#utility.yul\":10785:10876   */\n      tag_241\n        /* \"#utility.yul\":10834:10875   */\n      tag_242\n        /* \"#utility.yul\":10858:10874   */\n      dup3\n        /* \"#utility.yul\":10834:10875   */\n      tag_116\n      jump\t// in\n    tag_242:\n        /* \"#utility.yul\":10826:10832   */\n      dup5\n        /* \"#utility.yul\":10819:10823   */\n      dup5\n        /* \"#utility.yul\":10813:10824   */\n      sload\n        /* \"#utility.yul\":10785:10876   */\n      tag_113\n      jump\t// in\n    tag_241:\n        /* \"#utility.yul\":10779:10783   */\n      dup3\n        /* \"#utility.yul\":10772:10877   */\n      sstore\n        /* \"#utility.yul\":10690:10883   */\n      pop\n        /* \"#utility.yul\":10614:10883   */\n      pop\n      pop\n      pop\n      jump\t// out\n        /* \"#utility.yul\":10889:10962   */\n    tag_118:\n        /* \"#utility.yul\":10934:10937   */\n      0x00\n        /* \"#utility.yul\":10889:10962   */\n      swap1\n      jump\t// out\n        /* \"#utility.yul\":10968:11157   */\n    tag_119:\n        /* \"#utility.yul\":11045:11077   */\n      tag_245\n      tag_118\n      jump\t// in\n    tag_245:\n        /* \"#utility.yul\":11086:11151   */\n      tag_246\n        /* \"#utility.yul\":11144:11150   */\n      dup2\n        /* \"#utility.yul\":11136:11142   */\n      dup5\n        /* \"#utility.yul\":11130:11134   */\n      dup5\n        /* \"#utility.yul\":11086:11151   */\n      tag_117\n      jump\t// in\n    tag_246:\n        /* \"#utility.yul\":11021:11157   */\n      pop\n        /* \"#utility.yul\":10968:11157   */\n      pop\n      pop\n      jump\t// out\n        /* \"#utility.yul\":11163:11349   */\n    tag_120:\n        /* \"#utility.yul\":11223:11343   */\n    tag_248:\n        /* \"#utility.yul\":11240:11243   */\n      dup2\n        /* \"#utility.yul\":11233:11238   */\n      dup2\n        /* \"#utility.yul\":11230:11244   */\n      lt\n        /* \"#utility.yul\":11223:11343   */\n      iszero\n      tag_250\n      jumpi\n        /* \"#utility.yul\":11294:11333   */\n      tag_251\n        /* \"#utility.yul\":11331:11332   */\n      0x00\n        /* \"#utility.yul\":11324:11329   */\n      dup3\n        /* \"#utility.yul\":11294:11333   */\n      tag_119\n      jump\t// in\n    tag_251:\n        /* \"#utility.yul\":11267:11268   */\n      0x01\n        /* \"#utility.yul\":11260:11265   */\n      dup2\n        /* \"#utility.yul\":11256:11269   */\n      add\n        /* \"#utility.yul\":11247:11269   */\n      swap1\n      pop\n        /* \"#utility.yul\":11223:11343   */\n      jump(tag_248)\n    tag_250:\n        /* \"#utility.yul\":11163:11349   */\n      pop\n      pop\n      jump\t// out\n        /* \"#utility.yul\":11355:11898   */\n    tag_121:\n        /* \"#utility.yul\":11456:11458   */\n      0x1f\n        /* \"#utility.yul\":11451:11454   */\n      dup3\n        /* \"#utility.yul\":11448:11459   */\n      gt\n        /* \"#utility.yul\":11445:11891   */\n      iszero\n      tag_253\n      jumpi\n        /* \"#utility.yul\":11490:11528   */\n      tag_254\n        /* \"#utility.yul\":11522:11527   */\n      dup2\n        /* \"#utility.yul\":11490:11528   */\n      tag_110\n      jump\t// in\n    tag_254:\n        /* \"#utility.yul\":11574:11603   */\n      tag_255\n        /* \"#utility.yul\":11592:11602   */\n      dup5\n        /* \"#utility.yul\":11574:11603   */\n      tag_111\n      jump\t// in\n    tag_255:\n        /* \"#utility.yul\":11564:11572   */\n      dup2\n        /* \"#utility.yul\":11560:11604   */\n      add\n        /* \"#utility.yul\":11757:11759   */\n      0x20\n        /* \"#utility.yul\":11745:11755   */\n      dup6\n        /* \"#utility.yul\":11742:11760   */\n      lt\n        /* \"#utility.yul\":11739:11788   */\n      iszero\n      tag_256\n      jumpi\n        /* \"#utility.yul\":11778:11786   */\n      dup2\n        /* \"#utility.yul\":11763:11786   */\n      swap1\n      pop\n        /* \"#utility.yul\":11739:11788   */\n    tag_256:\n        /* \"#utility.yul\":11801:11881   */\n      tag_257\n        /* \"#utility.yul\":11857:11879   */\n      tag_258\n        /* \"#utility.yul\":11875:11878   */\n      dup6\n        /* \"#utility.yul\":11857:11879   */\n      tag_111\n      jump\t// in\n    tag_258:\n        /* \"#utility.yul\":11847:11855   */\n      dup4\n        /* \"#utility.yul\":11843:11880   */\n      add\n        /* \"#utility.yul\":11830:11841   */\n      dup3\n        /* \"#utility.yul\":11801:11881   */\n      tag_120\n      jump\t// in\n    tag_257:\n        /* \"#utility.yul\":11460:11891   */\n      pop\n      pop\n        /* \"#utility.yul\":11445:11891   */\n    tag_253:\n        /* \"#utility.yul\":11355:11898   */\n      pop\n      pop\n      pop\n      jump\t// out\n        /* \"#utility.yul\":11904:12021   */\n    tag_122:\n        /* \"#utility.yul\":11958:11966   */\n      0x00\n        /* \"#utility.yul\":12008:12013   */\n      dup3\n        /* \"#utility.yul\":12002:12006   */\n      dup3\n        /* \"#utility.yul\":11998:12014   */\n      shr\n        /* \"#utility.yul\":11977:12014   */\n      swap1\n      pop\n        /* \"#utility.yul\":11904:12021   */\n      swap3\n      swap2\n      pop\n      pop\n      jump\t// out\n        /* \"#utility.yul\":12027:12196   */\n    tag_123:\n        /* \"#utility.yul\":12071:12077   */\n      0x00\n        /* \"#utility.yul\":12104:12155   */\n      tag_261\n        /* \"#utility.yul\":12152:12153   */\n      0x00\n        /* \"#utility.yul\":12148:12154   */\n      not\n        /* \"#utility.yul\":12140:12145   */\n      dup5\n        /* \"#utility.yul\":12137:12138   */\n      0x08\n        /* \"#utility.yul\":12133:12146   */\n      mul\n        /* \"#utility.yul\":12104:12155   */\n      tag_122\n      jump\t// in\n    tag_261:\n        /* \"#utility.yul\":12100:12156   */\n      not\n        /* \"#utility.yul\":12185:12189   */\n      dup1\n        /* \"#utility.yul\":12179:12183   */\n      dup4\n        /* \"#utility.yul\":12175:12190   */\n      and\n        /* \"#utility.yul\":12165:12190   */\n      swap2\n      pop\n        /* \"#utility.yul\":12078:12196   */\n      pop\n        /* \"#utility.yul\":12027:12196   */\n      swap3\n      swap2\n      pop\n      pop\n      jump\t// out\n        /* \"#utility.yul\":12201:12496   */\n    tag_124:\n        /* \"#utility.yul\":12277:12281   */\n      0x00\n        /* \"#utility.yul\":12423:12452   */\n      tag_263\n        /* \"#utility.yul\":12448:12451   */\n      dup4\n        /* \"#utility.yul\":12442:12446   */\n      dup4\n        /* \"#utility.yul\":12423:12452   */\n      tag_123\n      jump\t// in\n    tag_263:\n        /* \"#utility.yul\":12415:12452   */\n      swap2\n      pop\n        /* \"#utility.yul\":12485:12488   */\n      dup3\n        /* \"#utility.yul\":12482:12483   */\n      0x02\n        /* \"#utility.yul\":12478:12489   */\n      mul\n        /* \"#utility.yul\":12472:12476   */\n      dup3\n        /* \"#utility.yul\":12469:12490   */\n      or\n        /* \"#utility.yul\":12461:12490   */\n      swap1\n      pop\n        /* \"#utility.yul\":12201:12496   */\n      swap3\n      swap2\n      pop\n      pop\n      jump\t// out\n        /* \"#utility.yul\":12501:13896   */\n    tag_56:\n        /* \"#utility.yul\":12618:12655   */\n      tag_265\n        /* \"#utility.yul\":12651:12654   */\n      dup3\n        /* \"#utility.yul\":12618:12655   */\n      tag_89\n      jump\t// in\n    tag_265:\n        /* \"#utility.yul\":12720:12738   */\n      0xffffffffffffffff\n        /* \"#utility.yul\":12712:12718   */\n      dup2\n        /* \"#utility.yul\":12709:12739   */\n      gt\n        /* \"#utility.yul\":12706:12762   */\n      iszero\n      tag_266\n      jumpi\n        /* \"#utility.yul\":12742:12760   */\n      tag_267\n      tag_95\n      jump\t// in\n    tag_267:\n        /* \"#utility.yul\":12706:12762   */\n    tag_266:\n        /* \"#utility.yul\":12786:12824   */\n      tag_268\n        /* \"#utility.yul\":12818:12822   */\n      dup3\n        /* \"#utility.yul\":12812:12823   */\n      sload\n        /* \"#utility.yul\":12786:12824   */\n      tag_33\n      jump\t// in\n    tag_268:\n        /* \"#utility.yul\":12871:12938   */\n      tag_269\n        /* \"#utility.yul\":12931:12937   */\n      dup3\n        /* \"#utility.yul\":12923:12929   */\n      dup3\n        /* \"#utility.yul\":12917:12921   */\n      dup6\n        /* \"#utility.yul\":12871:12938   */\n      tag_121\n      jump\t// in\n    tag_269:\n        /* \"#utility.yul\":12965:12966   */\n      0x00\n        /* \"#utility.yul\":12989:12993   */\n      0x20\n        /* \"#utility.yul\":12976:12993   */\n      swap1\n      pop\n        /* \"#utility.yul\":13021:13023   */\n      0x1f\n        /* \"#utility.yul\":13013:13019   */\n      dup4\n        /* \"#utility.yul\":13010:13024   */\n      gt\n        /* \"#utility.yul\":13038:13039   */\n      0x01\n        /* \"#utility.yul\":13033:13651   */\n      dup2\n      eq\n      tag_271\n      jumpi\n        /* \"#utility.yul\":13695:13696   */\n      0x00\n        /* \"#utility.yul\":13712:13718   */\n      dup5\n        /* \"#utility.yul\":13709:13786   */\n      iszero\n      tag_272\n      jumpi\n        /* \"#utility.yul\":13761:13770   */\n      dup3\n        /* \"#utility.yul\":13756:13759   */\n      dup8\n        /* \"#utility.yul\":13752:13771   */\n      add\n        /* \"#utility.yul\":13746:13772   */\n      mload\n        /* \"#utility.yul\":13737:13772   */\n      swap1\n      pop\n        /* \"#utility.yul\":13709:13786   */\n    tag_272:\n        /* \"#utility.yul\":13812:13879   */\n      tag_273\n        /* \"#utility.yul\":13872:13878   */\n      dup6\n        /* \"#utility.yul\":13865:13870   */\n      dup3\n        /* \"#utility.yul\":13812:13879   */\n      tag_124\n      jump\t// in\n    tag_273:\n        /* \"#utility.yul\":13806:13810   */\n      dup7\n        /* \"#utility.yul\":13799:13880   */\n      sstore\n        /* \"#utility.yul\":13668:13890   */\n      pop\n        /* \"#utility.yul\":13003:13890   */\n      jump(tag_270)\n        /* \"#utility.yul\":13033:13651   */\n    tag_271:\n        /* \"#utility.yul\":13085:13089   */\n      0x1f\n        /* \"#utility.yul\":13081:13090   */\n      not\n        /* \"#utility.yul\":13073:13079   */\n      dup5\n        /* \"#utility.yul\":13069:13091   */\n      and\n        /* \"#utility.yul\":13119:13156   */\n      tag_274\n        /* \"#utility.yul\":13151:13155   */\n      dup7\n        /* \"#utility.yul\":13119:13156   */\n      tag_110\n      jump\t// in\n    tag_274:\n        /* \"#utility.yul\":13178:13179   */\n      0x00\n        /* \"#utility.yul\":13192:13400   */\n    tag_275:\n        /* \"#utility.yul\":13206:13213   */\n      dup3\n        /* \"#utility.yul\":13203:13204   */\n      dup2\n        /* \"#utility.yul\":13200:13214   */\n      lt\n        /* \"#utility.yul\":13192:13400   */\n      iszero\n      tag_277\n      jumpi\n        /* \"#utility.yul\":13285:13294   */\n      dup5\n        /* \"#utility.yul\":13280:13283   */\n      dup10\n        /* \"#utility.yul\":13276:13295   */\n      add\n        /* \"#utility.yul\":13270:13296   */\n      mload\n        /* \"#utility.yul\":13262:13268   */\n      dup3\n        /* \"#utility.yul\":13255:13297   */\n      sstore\n        /* \"#utility.yul\":13336:13337   */\n      0x01\n        /* \"#utility.yul\":13328:13334   */\n      dup3\n        /* \"#utility.yul\":13324:13338   */\n      add\n        /* \"#utility.yul\":13314:13338   */\n      swap2\n      pop\n        /* \"#utility.yul\":13383:13385   */\n      0x20\n        /* \"#utility.yul\":13372:13381   */\n      dup6\n        /* \"#utility.yul\":13368:13386   */\n      add\n        /* \"#utility.yul\":13355:13386   */\n      swap5\n      pop\n        /* \"#utility.yul\":13229:13233   */\n      0x20\n        /* \"#utility.yul\":13226:13227   */\n      dup2\n        /* \"#utility.yul\":13222:13234   */\n      add\n        /* \"#utility.yul\":13217:13234   */\n      swap1\n      pop\n        /* \"#utility.yul\":13192:13400   */\n      jump(tag_275)\n    tag_277:\n        /* \"#utility.yul\":13428:13434   */\n      dup7\n        /* \"#utility.yul\":13419:13426   */\n      dup4\n        /* \"#utility.yul\":13416:13435   */\n      lt\n        /* \"#utility.yul\":13413:13592   */\n      iszero\n      tag_278\n      jumpi\n        /* \"#utility.yul\":13486:13495   */\n      dup5\n        /* \"#utility.yul\":13481:13484   */\n      dup10\n        /* \"#utility.yul\":13477:13496   */\n      add\n        /* \"#utility.yul\":13471:13497   */\n      mload\n        /* \"#utility.yul\":13529:13577   */\n      tag_279\n        /* \"#utility.yul\":13571:13575   */\n      0x1f\n        /* \"#utility.yul\":13563:13569   */\n      dup10\n        /* \"#utility.yul\":13559:13576   */\n      and\n        /* \"#utility.yul\":13548:13557   */\n      dup3\n        /* \"#utility.yul\":13529:13577   */\n      tag_123\n      jump\t// in\n    tag_279:\n        /* \"#utility.yul\":13521:13527   */\n      dup4\n        /* \"#utility.yul\":13514:13578   */\n      sstore\n        /* \"#utility.yul\":13436:13592   */\n      pop\n        /* \"#utility.yul\":13413:13592   */\n    tag_278:\n        /* \"#utility.yul\":13638:13639   */\n      0x01\n        /* \"#utility.yul\":13634:13635   */\n      0x02\n        /* \"#utility.yul\":13626:13632   */\n      dup9\n        /* \"#utility.yul\":13622:13636   */\n      mul\n        /* \"#utility.yul\":13618:13640   */\n      add\n        /* \"#utility.yul\":13612:13616   */\n      dup9\n        /* \"#utility.yul\":13605:13641   */\n      sstore\n        /* \"#utility.yul\":13040:13651   */\n      pop\n      pop\n      pop\n        /* \"#utility.yul\":13003:13890   */\n    tag_270:\n      pop\n        /* \"#utility.yul\":12593:13896   */\n      pop\n      pop\n      pop\n        /* \"#utility.yul\":12501:13896   */\n      pop\n      pop\n      jump\t// out\n        /* \"#utility.yul\":13902:14177   */\n    tag_67:\n        /* \"#utility.yul\":14034:14037   */\n      0x00\n        /* \"#utility.yul\":14056:14151   */\n      tag_281\n        /* \"#utility.yul\":14147:14150   */\n      dup3\n        /* \"#utility.yul\":14138:14144   */\n      dup5\n        /* \"#utility.yul\":14056:14151   */\n      tag_109\n      jump\t// in\n    tag_281:\n        /* \"#utility.yul\":14049:14151   */\n      swap2\n      pop\n        /* \"#utility.yul\":14168:14171   */\n      dup2\n        /* \"#utility.yul\":14161:14171   */\n      swap1\n      pop\n        /* \"#utility.yul\":13902:14177   */\n      swap3\n      swap2\n      pop\n      pop\n      jump\t// out\n\n    auxdata: 0xa2646970667358221220b34b127cfbc3571fa8a7bde409704ced9df1c77be39d293ae07e1f02d0f849b164736f6c63430008160033\n}\n",
				"bytecode": {
					"linkReferences": {},
					"object": "608060405234801561000f575f80fd5b50610c1d8061001d5f395ff3fe608060405260043610610042575f3560e01c8063303771741461004d578063b9e7a43914610089578063c2fc2dfe1461009f578063d4a2498d146100db57610049565b3661004957005b5f80fd5b348015610058575f80fd5b50610073600480360381019061006e91906104d1565b610103565b6040516100809190610586565b60405180910390f35b348015610094575f80fd5b5061009d6101a8565b005b3480156100aa575f80fd5b506100c560048036038101906100c091906107b4565b6101b6565b6040516100d29190610586565b60405180910390f35b3480156100e6575f80fd5b5061010160048036038101906100fc919061082a565b61025c565b005b5f8181548110610111575f80fd5b905f5260205f20015f9150905080546101299061089e565b80601f01602080910402602001604051908101604052809291908181526020018280546101559061089e565b80156101a05780601f10610177576101008083540402835291602001916101a0565b820191905f5260205f20905b81548152906001019060200180831161018357829003601f168201915b505050505081565b5f806101b491906103f4565b565b60605f8351036101d65760405180602001604052805f8152509050610256565b5f835f815181106101ea576101e96108ce565b5b602002602001015190505f600190505b8451811015610250578184868381518110610218576102176108ce565b5b602002602001015160405160200161023293929190610935565b604051602081830303815290604052915080806001019150506101fa565b50809150505b92915050565b5f81908060018154018082558091505060019003905f5260205f20015f90919091909150908161028c9190610b02565b505f6103985f805480602002602001604051908101604052809291908181526020015f905b82821015610359578382905f5260205f200180546102ce9061089e565b80601f01602080910402602001604051908101604052809291908181526020018280546102fa9061089e565b80156103455780601f1061031c57610100808354040283529160200191610345565b820191905f5260205f20905b81548152906001019060200180831161032857829003601f168201915b5050505050815260200190600101906102b1565b505050506040518060400160405280600281526020017f2c200000000000000000000000000000000000000000000000000000000000008152506101b6565b6040516020016103a89190610bd1565b60405160208183030381529060405290507fdb857c149804efe92c8bd47d059285f40fdced374ca6c0687e2e33497ff2d0d1816040516103e89190610586565b60405180910390a15050565b5080545f8255905f5260205f209081019061040f9190610412565b50565b5b80821115610431575f81816104289190610435565b50600101610413565b5090565b5080546104419061089e565b5f825580601f10610452575061046f565b601f0160209004905f5260205f209081019061046e9190610472565b5b50565b5b80821115610489575f815f905550600101610473565b5090565b5f604051905090565b5f80fd5b5f80fd5b5f819050919050565b6104b08161049e565b81146104ba575f80fd5b50565b5f813590506104cb816104a7565b92915050565b5f602082840312156104e6576104e5610496565b5b5f6104f3848285016104bd565b91505092915050565b5f81519050919050565b5f82825260208201905092915050565b5f5b83811015610533578082015181840152602081019050610518565b5f8484015250505050565b5f601f19601f8301169050919050565b5f610558826104fc565b6105628185610506565b9350610572818560208601610516565b61057b8161053e565b840191505092915050565b5f6020820190508181035f83015261059e818461054e565b905092915050565b5f80fd5b7f4e487b71000000000000000000000000000000000000000000000000000000005f52604160045260245ffd5b6105e08261053e565b810181811067ffffffffffffffff821117156105ff576105fe6105aa565b5b80604052505050565b5f61061161048d565b905061061d82826105d7565b919050565b5f67ffffffffffffffff82111561063c5761063b6105aa565b5b602082029050602081019050919050565b5f80fd5b5f80fd5b5f67ffffffffffffffff82111561066f5761066e6105aa565b5b6106788261053e565b9050602081019050919050565b828183375f83830152505050565b5f6106a56106a084610655565b610608565b9050828152602081018484840111156106c1576106c0610651565b5b6106cc848285610685565b509392505050565b5f82601f8301126106e8576106e76105a6565b5b81356106f8848260208601610693565b91505092915050565b5f61071361070e84610622565b610608565b905080838252602082019050602084028301858111156107365761073561064d565b5b835b8181101561077d57803567ffffffffffffffff81111561075b5761075a6105a6565b5b80860161076889826106d4565b85526020850194505050602081019050610738565b5050509392505050565b5f82601f83011261079b5761079a6105a6565b5b81356107ab848260208601610701565b91505092915050565b5f80604083850312156107ca576107c9610496565b5b5f83013567ffffffffffffffff8111156107e7576107e661049a565b5b6107f385828601610787565b925050602083013567ffffffffffffffff8111156108145761081361049a565b5b610820858286016106d4565b9150509250929050565b5f6020828403121561083f5761083e610496565b5b5f82013567ffffffffffffffff81111561085c5761085b61049a565b5b610868848285016106d4565b91505092915050565b7f4e487b71000000000000000000000000000000000000000000000000000000005f52602260045260245ffd5b5f60028204905060018216806108b557607f821691505b6020821081036108c8576108c7610871565b5b50919050565b7f4e487b71000000000000000000000000000000000000000000000000000000005f52603260045260245ffd5b5f81905092915050565b5f61090f826104fc565b61091981856108fb565b9350610929818560208601610516565b80840191505092915050565b5f6109408286610905565b915061094c8285610905565b91506109588284610905565b9150819050949350505050565b5f819050815f5260205f209050919050565b5f6020601f8301049050919050565b5f82821b905092915050565b5f600883026109c17fffffffffffffffffffffffffffffffffffffffffffffffffffffffffffffffff82610986565b6109cb8683610986565b95508019841693508086168417925050509392505050565b5f819050919050565b5f610a06610a016109fc8461049e565b6109e3565b61049e565b9050919050565b5f819050919050565b610a1f836109ec565b610a33610a2b82610a0d565b848454610992565b825550505050565b5f90565b610a47610a3b565b610a52818484610a16565b505050565b5b81811015610a7557610a6a5f82610a3f565b600181019050610a58565b5050565b601f821115610aba57610a8b81610965565b610a9484610977565b81016020851015610aa3578190505b610ab7610aaf85610977565b830182610a57565b50505b505050565b5f82821c905092915050565b5f610ada5f1984600802610abf565b1980831691505092915050565b5f610af28383610acb565b9150826002028217905092915050565b610b0b826104fc565b67ffffffffffffffff811115610b2457610b236105aa565b5b610b2e825461089e565b610b39828285610a79565b5f60209050601f831160018114610b6a575f8415610b58578287015190505b610b628582610ae7565b865550610bc9565b601f198416610b7886610965565b5f5b82811015610b9f57848901518255600182019150602085019450602081019050610b7a565b86831015610bbc5784890151610bb8601f891682610acb565b8355505b6001600288020188555050505b505050505050565b5f610bdc8284610905565b91508190509291505056fea2646970667358221220b34b127cfbc3571fa8a7bde409704ced9df1c77be39d293ae07e1f02d0f849b164736f6c63430008160033",
					"opcodes": "PUSH1 0x80 PUSH1 0x40 MSTORE CALLVALUE DUP1 ISZERO PUSH2 0xF JUMPI PUSH0 DUP1 REVERT JUMPDEST POP PUSH2 0xC1D DUP1 PUSH2 0x1D PUSH0 CODECOPY PUSH0 RETURN INVALID PUSH1 0x80 PUSH1 0x40 MSTORE PUSH1 0x4 CALLDATASIZE LT PUSH2 0x42 JUMPI PUSH0 CALLDATALOAD PUSH1 0xE0 SHR DUP1 PUSH4 0x30377174 EQ PUSH2 0x4D JUMPI DUP1 PUSH4 0xB9E7A439 EQ PUSH2 0x89 JUMPI DUP1 PUSH4 0xC2FC2DFE EQ PUSH2 0x9F JUMPI DUP1 PUSH4 0xD4A2498D EQ PUSH2 0xDB JUMPI PUSH2 0x49 JUMP JUMPDEST CALLDATASIZE PUSH2 0x49 JUMPI STOP JUMPDEST PUSH0 DUP1 REVERT JUMPDEST CALLVALUE DUP1 ISZERO PUSH2 0x58 JUMPI PUSH0 DUP1 REVERT JUMPDEST POP PUSH2 0x73 PUSH1 0x4 DUP1 CALLDATASIZE SUB DUP2 ADD SWAP1 PUSH2 0x6E SWAP2 SWAP1 PUSH2 0x4D1 JUMP JUMPDEST PUSH2 0x103 JUMP JUMPDEST PUSH1 0x40 MLOAD PUSH2 0x80 SWAP2 SWAP1 PUSH2 0x586 JUMP JUMPDEST PUSH1 0x40 MLOAD DUP1 SWAP2 SUB SWAP1 RETURN JUMPDEST CALLVALUE DUP1 ISZERO PUSH2 0x94 JUMPI PUSH0 DUP1 REVERT JUMPDEST POP PUSH2 0x9D PUSH2 0x1A8 JUMP JUMPDEST STOP JUMPDEST CALLVALUE DUP1 ISZERO PUSH2 0xAA JUMPI PUSH0 DUP1 REVERT JUMPDEST POP PUSH2 0xC5 PUSH1 0x4 DUP1 CALLDATASIZE SUB DUP2 ADD SWAP1 PUSH2 0xC0 SWAP2 SWAP1 PUSH2 0x7B4 JUMP JUMPDEST PUSH2 0x1B6 JUMP JUMPDEST PUSH1 0x40 MLOAD PUSH2 0xD2 SWAP2 SWAP1 PUSH2 0x586 JUMP JUMPDEST PUSH1 0x40 MLOAD DUP1 SWAP2 SUB SWAP1 RETURN JUMPDEST CALLVALUE DUP1 ISZERO PUSH2 0xE6 JUMPI PUSH0 DUP1 REVERT JUMPDEST POP PUSH2 0x101 PUSH1 0x4 DUP1 CALLDATASIZE SUB DUP2 ADD SWAP1 PUSH2 0xFC SWAP2 SWAP1 PUSH2 0x82A JUMP JUMPDEST PUSH2 0x25C JUMP JUMPDEST STOP JUMPDEST PUSH0 DUP2 DUP2 SLOAD DUP2 LT PUSH2 0x111 JUMPI PUSH0 DUP1 REVERT JUMPDEST SWAP1 PUSH0 MSTORE PUSH1 0x20 PUSH0 KECCAK256 ADD PUSH0 SWAP2 POP SWAP1 POP DUP1 SLOAD PUSH2 0x129 SWAP1 PUSH2 0x89E JUMP JUMPDEST DUP1 PUSH1 0x1F ADD PUSH1 0x20 DUP1 SWAP2 DIV MUL PUSH1 0x20 ADD PUSH1 0x40 MLOAD SWAP1 DUP2 ADD PUSH1 0x40 MSTORE DUP1 SWAP3 SWAP2 SWAP1 DUP2 DUP2 MSTORE PUSH1 0x20 ADD DUP3 DUP1 SLOAD PUSH2 0x155 SWAP1 PUSH2 0x89E JUMP JUMPDEST DUP1 ISZERO PUSH2 0x1A0 JUMPI DUP1 PUSH1 0x1F LT PUSH2 0x177 JUMPI PUSH2 0x100 DUP1 DUP4 SLOAD DIV MUL DUP4 MSTORE SWAP2 PUSH1 0x20 ADD SWAP2 PUSH2 0x1A0 JUMP JUMPDEST DUP3 ADD SWAP2 SWAP1 PUSH0 MSTORE PUSH1 0x20 PUSH0 KECCAK256 SWAP1 JUMPDEST DUP2 SLOAD DUP2 MSTORE SWAP1 PUSH1 0x1 ADD SWAP1 PUSH1 0x20 ADD DUP1 DUP4 GT PUSH2 0x183 JUMPI DUP3 SWAP1 SUB PUSH1 0x1F AND DUP3 ADD SWAP2 JUMPDEST POP POP POP POP POP DUP2 JUMP JUMPDEST PUSH0 DUP1 PUSH2 0x1B4 SWAP2 SWAP1 PUSH2 0x3F4 JUMP JUMPDEST JUMP JUMPDEST PUSH1 0x60 PUSH0 DUP4 MLOAD SUB PUSH2 0x1D6 JUMPI PUSH1 0x40 MLOAD DUP1 PUSH1 0x20 ADD PUSH1 0x40 MSTORE DUP1 PUSH0 DUP2 MSTORE POP SWAP1 POP PUSH2 0x256 JUMP JUMPDEST PUSH0 DUP4 PUSH0 DUP2 MLOAD DUP2 LT PUSH2 0x1EA JUMPI PUSH2 0x1E9 PUSH2 0x8CE JUMP JUMPDEST JUMPDEST PUSH1 0x20 MUL PUSH1 0x20 ADD ADD MLOAD SWAP1 POP PUSH0 PUSH1 0x1 SWAP1 POP JUMPDEST DUP5 MLOAD DUP2 LT ISZERO PUSH2 0x250 JUMPI DUP2 DUP5 DUP7 DUP4 DUP2 MLOAD DUP2 LT PUSH2 0x218 JUMPI PUSH2 0x217 PUSH2 0x8CE JUMP JUMPDEST JUMPDEST PUSH1 0x20 MUL PUSH1 0x20 ADD ADD MLOAD PUSH1 0x40 MLOAD PUSH1 0x20 ADD PUSH2 0x232 SWAP4 SWAP3 SWAP2 SWAP1 PUSH2 0x935 JUMP JUMPDEST PUSH1 0x40 MLOAD PUSH1 0x20 DUP2 DUP4 SUB SUB DUP2 MSTORE SWAP1 PUSH1 0x40 MSTORE SWAP2 POP DUP1 DUP1 PUSH1 0x1 ADD SWAP2 POP POP PUSH2 0x1FA JUMP JUMPDEST POP DUP1 SWAP2 POP POP JUMPDEST SWAP3 SWAP2 POP POP JUMP JUMPDEST PUSH0 DUP2 SWAP1 DUP1 PUSH1 0x1 DUP2 SLOAD ADD DUP1 DUP3 SSTORE DUP1 SWAP2 POP POP PUSH1 0x1 SWAP1 SUB SWAP1 PUSH0 MSTORE PUSH1 0x20 PUSH0 KECCAK256 ADD PUSH0 SWAP1 SWAP2 SWAP1 SWAP2 SWAP1 SWAP2 POP SWAP1 DUP2 PUSH2 0x28C SWAP2 SWAP1 PUSH2 0xB02 JUMP JUMPDEST POP PUSH0 PUSH2 0x398 PUSH0 DUP1 SLOAD DUP1 PUSH1 0x20 MUL PUSH1 0x20 ADD PUSH1 0x40 MLOAD SWAP1 DUP2 ADD PUSH1 0x40 MSTORE DUP1 SWAP3 SWAP2 SWAP1 DUP2 DUP2 MSTORE PUSH1 0x20 ADD PUSH0 SWAP1 JUMPDEST DUP3 DUP3 LT ISZERO PUSH2 0x359 JUMPI DUP4 DUP3 SWAP1 PUSH0 MSTORE PUSH1 0x20 PUSH0 KECCAK256 ADD DUP1 SLOAD PUSH2 0x2CE SWAP1 PUSH2 0x89E JUMP JUMPDEST DUP1 PUSH1 0x1F ADD PUSH1 0x20 DUP1 SWAP2 DIV MUL PUSH1 0x20 ADD PUSH1 0x40 MLOAD SWAP1 DUP2 ADD PUSH1 0x40 MSTORE DUP1 SWAP3 SWAP2 SWAP1 DUP2 DUP2 MSTORE PUSH1 0x20 ADD DUP3 DUP1 SLOAD PUSH2 0x2FA SWAP1 PUSH2 0x89E JUMP JUMPDEST DUP1 ISZERO PUSH2 0x345 JUMPI DUP1 PUSH1 0x1F LT PUSH2 0x31C JUMPI PUSH2 0x100 DUP1 DUP4 SLOAD DIV MUL DUP4 MSTORE SWAP2 PUSH1 0x20 ADD SWAP2 PUSH2 0x345 JUMP JUMPDEST DUP3 ADD SWAP2 SWAP1 PUSH0 MSTORE PUSH1 0x20 PUSH0 KECCAK256 SWAP1 JUMPDEST DUP2 SLOAD DUP2 MSTORE SWAP1 PUSH1 0x1 ADD SWAP1 PUSH1 0x20 ADD DUP1 DUP4 GT PUSH2 0x328 JUMPI DUP3 SWAP1 SUB PUSH1 0x1F AND DUP3 ADD SWAP2 JUMPDEST POP POP POP POP POP DUP2 MSTORE PUSH1 0x20 ADD SWAP1 PUSH1 0x1 ADD SWAP1 PUSH2 0x2B1 JUMP JUMPDEST POP POP POP POP PUSH1 0x40 MLOAD DUP1 PUSH1 0x40 ADD PUSH1 0x40 MSTORE DUP1 PUSH1 0x2 DUP2 MSTORE PUSH1 0x20 ADD PUSH32 0x2C20000000000000000000000000000000000000000000000000000000000000 DUP2 MSTORE POP PUSH2 0x1B6 JUMP JUMPDEST PUSH1 0x40 MLOAD PUSH1 0x20 ADD PUSH2 0x3A8 SWAP2 SWAP1 PUSH2 0xBD1 JUMP JUMPDEST PUSH1 0x40 MLOAD PUSH1 0x20 DUP2 DUP4 SUB SUB DUP2 MSTORE SWAP1 PUSH1 0x40 MSTORE SWAP1 POP PUSH32 0xDB857C149804EFE92C8BD47D059285F40FDCED374CA6C0687E2E33497FF2D0D1 DUP2 PUSH1 0x40 MLOAD PUSH2 0x3E8 SWAP2 SWAP1 PUSH2 0x586 JUMP JUMPDEST PUSH1 0x40 MLOAD DUP1 SWAP2 SUB SWAP1 LOG1 POP POP JUMP JUMPDEST POP DUP1 SLOAD PUSH0 DUP3 SSTORE SWAP1 PUSH0 MSTORE PUSH1 0x20 PUSH0 KECCAK256 SWAP1 DUP2 ADD SWAP1 PUSH2 0x40F SWAP2 SWAP1 PUSH2 0x412 JUMP JUMPDEST POP JUMP JUMPDEST JUMPDEST DUP1 DUP3 GT ISZERO PUSH2 0x431 JUMPI PUSH0 DUP2 DUP2 PUSH2 0x428 SWAP2 SWAP1 PUSH2 0x435 JUMP JUMPDEST POP PUSH1 0x1 ADD PUSH2 0x413 JUMP JUMPDEST POP SWAP1 JUMP JUMPDEST POP DUP1 SLOAD PUSH2 0x441 SWAP1 PUSH2 0x89E JUMP JUMPDEST PUSH0 DUP3 SSTORE DUP1 PUSH1 0x1F LT PUSH2 0x452 JUMPI POP PUSH2 0x46F JUMP JUMPDEST PUSH1 0x1F ADD PUSH1 0x20 SWAP1 DIV SWAP1 PUSH0 MSTORE PUSH1 0x20 PUSH0 KECCAK256 SWAP1 DUP2 ADD SWAP1 PUSH2 0x46E SWAP2 SWAP1 PUSH2 0x472 JUMP JUMPDEST JUMPDEST POP JUMP JUMPDEST JUMPDEST DUP1 DUP3 GT ISZERO PUSH2 0x489 JUMPI PUSH0 DUP2 PUSH0 SWAP1 SSTORE POP PUSH1 0x1 ADD PUSH2 0x473 JUMP JUMPDEST POP SWAP1 JUMP JUMPDEST PUSH0 PUSH1 0x40 MLOAD SWAP1 POP SWAP1 JUMP JUMPDEST PUSH0 DUP1 REVERT JUMPDEST PUSH0 DUP1 REVERT JUMPDEST PUSH0 DUP2 SWAP1 POP SWAP2 SWAP1 POP JUMP JUMPDEST PUSH2 0x4B0 DUP2 PUSH2 0x49E JUMP JUMPDEST DUP2 EQ PUSH2 0x4BA JUMPI PUSH0 DUP1 REVERT JUMPDEST POP JUMP JUMPDEST PUSH0 DUP2 CALLDATALOAD SWAP1 POP PUSH2 0x4CB DUP2 PUSH2 0x4A7 JUMP JUMPDEST SWAP3 SWAP2 POP POP JUMP JUMPDEST PUSH0 PUSH1 0x20 DUP3 DUP5 SUB SLT ISZERO PUSH2 0x4E6 JUMPI PUSH2 0x4E5 PUSH2 0x496 JUMP JUMPDEST JUMPDEST PUSH0 PUSH2 0x4F3 DUP5 DUP3 DUP6 ADD PUSH2 0x4BD JUMP JUMPDEST SWAP2 POP POP SWAP3 SWAP2 POP POP JUMP JUMPDEST PUSH0 DUP2 MLOAD SWAP1 POP SWAP2 SWAP1 POP JUMP JUMPDEST PUSH0 DUP3 DUP3 MSTORE PUSH1 0x20 DUP3 ADD SWAP1 POP SWAP3 SWAP2 POP POP JUMP JUMPDEST PUSH0 JUMPDEST DUP4 DUP2 LT ISZERO PUSH2 0x533 JUMPI DUP1 DUP3 ADD MLOAD DUP2 DUP5 ADD MSTORE PUSH1 0x20 DUP2 ADD SWAP1 POP PUSH2 0x518 JUMP JUMPDEST PUSH0 DUP5 DUP5 ADD MSTORE POP POP POP POP JUMP JUMPDEST PUSH0 PUSH1 0x1F NOT PUSH1 0x1F DUP4 ADD AND SWAP1 POP SWAP2 SWAP1 POP JUMP JUMPDEST PUSH0 PUSH2 0x558 DUP3 PUSH2 0x4FC JUMP JUMPDEST PUSH2 0x562 DUP2 DUP6 PUSH2 0x506 JUMP JUMPDEST SWAP4 POP PUSH2 0x572 DUP2 DUP6 PUSH1 0x20 DUP7 ADD PUSH2 0x516 JUMP JUMPDEST PUSH2 0x57B DUP2 PUSH2 0x53E JUMP JUMPDEST DUP5 ADD SWAP2 POP POP SWAP3 SWAP2 POP POP JUMP JUMPDEST PUSH0 PUSH1 0x20 DUP3 ADD SWAP1 POP DUP2 DUP2 SUB PUSH0 DUP4 ADD MSTORE PUSH2 0x59E DUP2 DUP5 PUSH2 0x54E JUMP JUMPDEST SWAP1 POP SWAP3 SWAP2 POP POP JUMP JUMPDEST PUSH0 DUP1 REVERT JUMPDEST PUSH32 0x4E487B7100000000000000000000000000000000000000000000000000000000 PUSH0 MSTORE PUSH1 0x41 PUSH1 0x4 MSTORE PUSH1 0x24 PUSH0 REVERT JUMPDEST PUSH2 0x5E0 DUP3 PUSH2 0x53E JUMP JUMPDEST DUP2 ADD DUP2 DUP2 LT PUSH8 0xFFFFFFFFFFFFFFFF DUP3 GT OR ISZERO PUSH2 0x5FF JUMPI PUSH2 0x5FE PUSH2 0x5AA JUMP JUMPDEST JUMPDEST DUP1 PUSH1 0x40 MSTORE POP POP POP JUMP JUMPDEST PUSH0 PUSH2 0x611 PUSH2 0x48D JUMP JUMPDEST SWAP1 POP PUSH2 0x61D DUP3 DUP3 PUSH2 0x5D7 JUMP JUMPDEST SWAP2 SWAP1 POP JUMP JUMPDEST PUSH0 PUSH8 0xFFFFFFFFFFFFFFFF DUP3 GT ISZERO PUSH2 0x63C JUMPI PUSH2 0x63B PUSH2 0x5AA JUMP JUMPDEST JUMPDEST PUSH1 0x20 DUP3 MUL SWAP1 POP PUSH1 0x20 DUP2 ADD SWAP1 POP SWAP2 SWAP1 POP JUMP JUMPDEST PUSH0 DUP1 REVERT JUMPDEST PUSH0 DUP1 REVERT JUMPDEST PUSH0 PUSH8 0xFFFFFFFFFFFFFFFF DUP3 GT ISZERO PUSH2 0x66F JUMPI PUSH2 0x66E PUSH2 0x5AA JUMP JUMPDEST JUMPDEST PUSH2 0x678 DUP3 PUSH2 0x53E JUMP JUMPDEST SWAP1 POP PUSH1 0x20 DUP2 ADD SWAP1 POP SWAP2 SWAP1 POP JUMP JUMPDEST DUP3 DUP2 DUP4 CALLDATACOPY PUSH0 DUP4 DUP4 ADD MSTORE POP POP POP JUMP JUMPDEST PUSH0 PUSH2 0x6A5 PUSH2 0x6A0 DUP5 PUSH2 0x655 JUMP JUMPDEST PUSH2 0x608 JUMP JUMPDEST SWAP1 POP DUP3 DUP2 MSTORE PUSH1 0x20 DUP2 ADD DUP5 DUP5 DUP5 ADD GT ISZERO PUSH2 0x6C1 JUMPI PUSH2 0x6C0 PUSH2 0x651 JUMP JUMPDEST JUMPDEST PUSH2 0x6CC DUP5 DUP3 DUP6 PUSH2 0x685 JUMP JUMPDEST POP SWAP4 SWAP3 POP POP POP JUMP JUMPDEST PUSH0 DUP3 PUSH1 0x1F DUP4 ADD SLT PUSH2 0x6E8 JUMPI PUSH2 0x6E7 PUSH2 0x5A6 JUMP JUMPDEST JUMPDEST DUP2 CALLDATALOAD PUSH2 0x6F8 DUP5 DUP3 PUSH1 0x20 DUP7 ADD PUSH2 0x693 JUMP JUMPDEST SWAP2 POP POP SWAP3 SWAP2 POP POP JUMP JUMPDEST PUSH0 PUSH2 0x713 PUSH2 0x70E DUP5 PUSH2 0x622 JUMP JUMPDEST PUSH2 0x608 JUMP JUMPDEST SWAP1 POP DUP1 DUP4 DUP3 MSTORE PUSH1 0x20 DUP3 ADD SWAP1 POP PUSH1 0x20 DUP5 MUL DUP4 ADD DUP6 DUP2 GT ISZERO PUSH2 0x736 JUMPI PUSH2 0x735 PUSH2 0x64D JUMP JUMPDEST JUMPDEST DUP4 JUMPDEST DUP2 DUP2 LT ISZERO PUSH2 0x77D JUMPI DUP1 CALLDATALOAD PUSH8 0xFFFFFFFFFFFFFFFF DUP2 GT ISZERO PUSH2 0x75B JUMPI PUSH2 0x75A PUSH2 0x5A6 JUMP JUMPDEST JUMPDEST DUP1 DUP7 ADD PUSH2 0x768 DUP10 DUP3 PUSH2 0x6D4 JUMP JUMPDEST DUP6 MSTORE PUSH1 0x20 DUP6 ADD SWAP5 POP POP POP PUSH1 0x20 DUP2 ADD SWAP1 POP PUSH2 0x738 JUMP JUMPDEST POP POP POP SWAP4 SWAP3 POP POP POP JUMP JUMPDEST PUSH0 DUP3 PUSH1 0x1F DUP4 ADD SLT PUSH2 0x79B JUMPI PUSH2 0x79A PUSH2 0x5A6 JUMP JUMPDEST JUMPDEST DUP2 CALLDATALOAD PUSH2 0x7AB DUP5 DUP3 PUSH1 0x20 DUP7 ADD PUSH2 0x701 JUMP JUMPDEST SWAP2 POP POP SWAP3 SWAP2 POP POP JUMP JUMPDEST PUSH0 DUP1 PUSH1 0x40 DUP4 DUP6 SUB SLT ISZERO PUSH2 0x7CA JUMPI PUSH2 0x7C9 PUSH2 0x496 JUMP JUMPDEST JUMPDEST PUSH0 DUP4 ADD CALLDATALOAD PUSH8 0xFFFFFFFFFFFFFFFF DUP2 GT ISZERO PUSH2 0x7E7 JUMPI PUSH2 0x7E6 PUSH2 0x49A JUMP JUMPDEST JUMPDEST PUSH2 0x7F3 DUP6 DUP3 DUP7 ADD PUSH2 0x787 JUMP JUMPDEST SWAP3 POP POP PUSH1 0x20 DUP4 ADD CALLDATALOAD PUSH8 0xFFFFFFFFFFFFFFFF DUP2 GT ISZERO PUSH2 0x814 JUMPI PUSH2 0x813 PUSH2 0x49A JUMP JUMPDEST JUMPDEST PUSH2 0x820 DUP6 DUP3 DUP7 ADD PUSH2 0x6D4 JUMP JUMPDEST SWAP2 POP POP SWAP3 POP SWAP3 SWAP1 POP JUMP JUMPDEST PUSH0 PUSH1 0x20 DUP3 DUP5 SUB SLT ISZERO PUSH2 0x83F JUMPI PUSH2 0x83E PUSH2 0x496 JUMP JUMPDEST JUMPDEST PUSH0 DUP3 ADD CALLDATALOAD PUSH8 0xFFFFFFFFFFFFFFFF DUP2 GT ISZERO PUSH2 0x85C JUMPI PUSH2 0x85B PUSH2 0x49A JUMP JUMPDEST JUMPDEST PUSH2 0x868 DUP5 DUP3 DUP6 ADD PUSH2 0x6D4 JUMP JUMPDEST SWAP2 POP POP SWAP3 SWAP2 POP POP JUMP JUMPDEST PUSH32 0x4E487B7100000000000000000000000000000000000000000000000000000000 PUSH0 MSTORE PUSH1 0x22 PUSH1 0x4 MSTORE PUSH1 0x24 PUSH0 REVERT JUMPDEST PUSH0 PUSH1 0x2 DUP3 DIV SWAP1 POP PUSH1 0x1 DUP3 AND DUP1 PUSH2 0x8B5 JUMPI PUSH1 0x7F DUP3 AND SWAP2 POP JUMPDEST PUSH1 0x20 DUP3 LT DUP2 SUB PUSH2 0x8C8 JUMPI PUSH2 0x8C7 PUSH2 0x871 JUMP JUMPDEST JUMPDEST POP SWAP2 SWAP1 POP JUMP JUMPDEST PUSH32 0x4E487B7100000000000000000000000000000000000000000000000000000000 PUSH0 MSTORE PUSH1 0x32 PUSH1 0x4 MSTORE PUSH1 0x24 PUSH0 REVERT JUMPDEST PUSH0 DUP2 SWAP1 POP SWAP3 SWAP2 POP POP JUMP JUMPDEST PUSH0 PUSH2 0x90F DUP3 PUSH2 0x4FC JUMP JUMPDEST PUSH2 0x919 DUP2 DUP6 PUSH2 0x8FB JUMP JUMPDEST SWAP4 POP PUSH2 0x929 DUP2 DUP6 PUSH1 0x20 DUP7 ADD PUSH2 0x516 JUMP JUMPDEST DUP1 DUP5 ADD SWAP2 POP POP SWAP3 SWAP2 POP POP JUMP JUMPDEST PUSH0 PUSH2 0x940 DUP3 DUP7 PUSH2 0x905 JUMP JUMPDEST SWAP2 POP PUSH2 0x94C DUP3 DUP6 PUSH2 0x905 JUMP JUMPDEST SWAP2 POP PUSH2 0x958 DUP3 DUP5 PUSH2 0x905 JUMP JUMPDEST SWAP2 POP DUP2 SWAP1 POP SWAP5 SWAP4 POP POP POP POP JUMP JUMPDEST PUSH0 DUP2 SWAP1 POP DUP2 PUSH0 MSTORE PUSH1 0x20 PUSH0 KECCAK256 SWAP1 POP SWAP2 SWAP1 POP JUMP JUMPDEST PUSH0 PUSH1 0x20 PUSH1 0x1F DUP4 ADD DIV SWAP1 POP SWAP2 SWAP1 POP JUMP JUMPDEST PUSH0 DUP3 DUP3 SHL SWAP1 POP SWAP3 SWAP2 POP POP JUMP JUMPDEST PUSH0 PUSH1 0x8 DUP4 MUL PUSH2 0x9C1 PUSH32 0xFFFFFFFFFFFFFFFFFFFFFFFFFFFFFFFFFFFFFFFFFFFFFFFFFFFFFFFFFFFFFFFF DUP3 PUSH2 0x986 JUMP JUMPDEST PUSH2 0x9CB DUP7 DUP4 PUSH2 0x986 JUMP JUMPDEST SWAP6 POP DUP1 NOT DUP5 AND SWAP4 POP DUP1 DUP7 AND DUP5 OR SWAP3 POP POP POP SWAP4 SWAP3 POP POP POP JUMP JUMPDEST PUSH0 DUP2 SWAP1 POP SWAP2 SWAP1 POP JUMP JUMPDEST PUSH0 PUSH2 0xA06 PUSH2 0xA01 PUSH2 0x9FC DUP5 PUSH2 0x49E JUMP JUMPDEST PUSH2 0x9E3 JUMP JUMPDEST PUSH2 0x49E JUMP JUMPDEST SWAP1 POP SWAP2 SWAP1 POP JUMP JUMPDEST PUSH0 DUP2 SWAP1 POP SWAP2 SWAP1 POP JUMP JUMPDEST PUSH2 0xA1F DUP4 PUSH2 0x9EC JUMP JUMPDEST PUSH2 0xA33 PUSH2 0xA2B DUP3 PUSH2 0xA0D JUMP JUMPDEST DUP5 DUP5 SLOAD PUSH2 0x992 JUMP JUMPDEST DUP3 SSTORE POP POP POP POP JUMP JUMPDEST PUSH0 SWAP1 JUMP JUMPDEST PUSH2 0xA47 PUSH2 0xA3B JUMP JUMPDEST PUSH2 0xA52 DUP2 DUP5 DUP5 PUSH2 0xA16 JUMP JUMPDEST POP POP POP JUMP JUMPDEST JUMPDEST DUP2 DUP2 LT ISZERO PUSH2 0xA75 JUMPI PUSH2 0xA6A PUSH0 DUP3 PUSH2 0xA3F JUMP JUMPDEST PUSH1 0x1 DUP2 ADD SWAP1 POP PUSH2 0xA58 JUMP JUMPDEST POP POP JUMP JUMPDEST PUSH1 0x1F DUP3 GT ISZERO PUSH2 0xABA JUMPI PUSH2 0xA8B DUP2 PUSH2 0x965 JUMP JUMPDEST PUSH2 0xA94 DUP5 PUSH2 0x977 JUMP JUMPDEST DUP2 ADD PUSH1 0x20 DUP6 LT ISZERO PUSH2 0xAA3 JUMPI DUP2 SWAP1 POP JUMPDEST PUSH2 0xAB7 PUSH2 0xAAF DUP6 PUSH2 0x977 JUMP JUMPDEST DUP4 ADD DUP3 PUSH2 0xA57 JUMP JUMPDEST POP POP JUMPDEST POP POP POP JUMP JUMPDEST PUSH0 DUP3 DUP3 SHR SWAP1 POP SWAP3 SWAP2 POP POP JUMP JUMPDEST PUSH0 PUSH2 0xADA PUSH0 NOT DUP5 PUSH1 0x8 MUL PUSH2 0xABF JUMP JUMPDEST NOT DUP1 DUP4 AND SWAP2 POP POP SWAP3 SWAP2 POP POP JUMP JUMPDEST PUSH0 PUSH2 0xAF2 DUP4 DUP4 PUSH2 0xACB JUMP JUMPDEST SWAP2 POP DUP3 PUSH1 0x2 MUL DUP3 OR SWAP1 POP SWAP3 SWAP2 POP POP JUMP JUMPDEST PUSH2 0xB0B DUP3 PUSH2 0x4FC JUMP JUMPDEST PUSH8 0xFFFFFFFFFFFFFFFF DUP2 GT ISZERO PUSH2 0xB24 JUMPI PUSH2 0xB23 PUSH2 0x5AA JUMP JUMPDEST JUMPDEST PUSH2 0xB2E DUP3 SLOAD PUSH2 0x89E JUMP JUMPDEST PUSH2 0xB39 DUP3 DUP3 DUP6 PUSH2 0xA79 JUMP JUMPDEST PUSH0 PUSH1 0x20 SWAP1 POP PUSH1 0x1F DUP4 GT PUSH1 0x1 DUP2 EQ PUSH2 0xB6A JUMPI PUSH0 DUP5 ISZERO PUSH2 0xB58 JUMPI DUP3 DUP8 ADD MLOAD SWAP1 POP JUMPDEST PUSH2 0xB62 DUP6 DUP3 PUSH2 0xAE7 JUMP JUMPDEST DUP7 SSTORE POP PUSH2 0xBC9 JUMP JUMPDEST PUSH1 0x1F NOT DUP5 AND PUSH2 0xB78 DUP7 PUSH2 0x965 JUMP JUMPDEST PUSH0 JUMPDEST DUP3 DUP2 LT ISZERO PUSH2 0xB9F JUMPI DUP5 DUP10 ADD MLOAD DUP3 SSTORE PUSH1 0x1 DUP3 ADD SWAP2 POP PUSH1 0x20 DUP6 ADD SWAP5 POP PUSH1 0x20 DUP2 ADD SWAP1 POP PUSH2 0xB7A JUMP JUMPDEST DUP7 DUP4 LT ISZERO PUSH2 0xBBC JUMPI DUP5 DUP10 ADD MLOAD PUSH2 0xBB8 PUSH1 0x1F DUP10 AND DUP3 PUSH2 0xACB JUMP JUMPDEST DUP4 SSTORE POP JUMPDEST PUSH1 0x1 PUSH1 0x2 DUP9 MUL ADD DUP9 SSTORE POP POP POP JUMPDEST POP POP POP POP POP POP JUMP JUMPDEST PUSH0 PUSH2 0xBDC DUP3 DUP5 PUSH2 0x905 JUMP JUMPDEST SWAP2 POP DUP2 SWAP1 POP SWAP3 SWAP2 POP POP JUMP INVALID LOG2 PUSH5 0x6970667358 0x22 SLT KECCAK256 0xB3 0x4B SLT PUSH29 0xFBC3571FA8A7BDE409704CED9DF1C77BE39D293AE07E1F02D0F849B164 PUSH20 0x6F6C634300081600330000000000000000000000 "
				},
				"gasEstimates": {
					"creation": {
						"codeDepositCost": "620200",
						"executionCost": "649",
						"totalCost": "620849"
					},
					"external": {
						"addData(string)": "infinite",
						"clearData()": "infinite",
						"storedData(uint256)": "infinite",
						"stringJoin(string[],string)": "infinite"
					}
				},
				"methodIdentifiers": {
					"addData(string)": "d4a2498d",
					"clearData()": "b9e7a439",
					"storedData(uint256)": "30377174",
					"stringJoin(string[],string)": "c2fc2dfe"
				}
			},
			"storageLayout": {
				"storage": [
					{
						"astId": 4,
						"contract": "src/contracts-app/contracts/DataStorage.sol:DataStorage",
						"label": "storedData",
						"offset": 0,
						"slot": "0",
						"type": "t_array(t_string_storage)dyn_storage"
					}
				],
				"types": {
					"t_array(t_string_storage)dyn_storage": {
						"base": "t_string_storage",
						"encoding": "dynamic_array",
						"label": "string[]",
						"numberOfBytes": "32"
					},
					"t_string_storage": {
						"encoding": "bytes",
						"label": "string",
						"numberOfBytes": "32"
					}
				}
			},
			"userdoc": {
				"kind": "user",
				"methods": {},
				"version": 1
			}
		}
	}
}