{
  "_format": "hh-sol-artifact-1",
  "contractName": "DataStorage",
  "sourceName": "src/contracts-app/contracts/DataStorage.sol",
  "abi": [
    {
      "anonymous": false,
      "inputs": [
        {
          "indexed": false,
          "internalType": "string",
          "name": "storedResult",
          "type": "string"
        }
      ],
      "name": "DataWritten",
      "type": "event"
    },
    {
      "inputs": [
        {
          "internalType": "string",
          "name": "newData",
          "type": "string"
        }
      ],
      "name": "addData",
      "outputs": [],
      "stateMutability": "nonpayable",
      "type": "function"
    },
    {
      "inputs": [],
      "name": "clearData",
      "outputs": [],
      "stateMutability": "nonpayable",
      "type": "function"
    },
    {
      "inputs": [
        {
          "internalType": "uint256",
          "name": "",
          "type": "uint256"
        }
      ],
      "name": "storedData",
      "outputs": [
        {
          "internalType": "string",
          "name": "",
          "type": "string"
        }
      ],
      "stateMutability": "view",
      "type": "function"
    },
    {
      "stateMutability": "payable",
      "type": "receive"
    }
  ],
  "bytecode": "0x608060405234801561001057600080fd5b50610b57806100206000396000f3fe6080604052600436106100385760003560e01c80633037717414610044578063b9e7a43914610081578063d4a2498d146100985761003f565b3661003f57005b600080fd5b34801561005057600080fd5b5061006b600480360381019061006691906104bc565b6100c1565b6040516100789190610579565b60405180910390f35b34801561008d57600080fd5b5061009661016d565b005b3480156100a457600080fd5b506100bf60048036038101906100ba91906106d0565b61017c565b005b600081815481106100d157600080fd5b9060005260206000200160009150905080546100ec90610748565b80601f016020809104026020016040519081016040528092919081815260200182805461011890610748565b80156101655780601f1061013a57610100808354040283529160200191610165565b820191906000526020600020905b81548152906001019060200180831161014857829003601f168201915b505050505081565b60008061017a91906103d0565b565b6000819080600181540180825580915050600190039060005260206000200160009091909190915090816101b09190610925565b5060006102c36000805480602002602001604051908101604052809291908181526020016000905b828210156102845783829060005260206000200180546101f790610748565b80601f016020809104026020016040519081016040528092919081815260200182805461022390610748565b80156102705780601f1061024557610100808354040283529160200191610270565b820191906000526020600020905b81548152906001019060200180831161025357829003601f168201915b5050505050815260200190600101906101d8565b505050506040518060400160405280600281526020017f2c2000000000000000000000000000000000000000000000000000000000000081525061031f565b6040516020016102d39190610a33565b60405160208183030381529060405290507fdb857c149804efe92c8bd47d059285f40fdced374ca6c0687e2e33497ff2d0d1816040516103139190610579565b60405180910390a15050565b60606000835103610341576040518060200160405280600081525090506103ca565b60008360008151811061035757610356610a4a565b5b602002602001015190506000600190505b84518110156103c457818486838151811061038657610385610a4a565b5b60200260200101516040516020016103a093929190610a79565b604051602081830303815290604052915080806103bc90610ad9565b915050610368565b50809150505b92915050565b50805460008255906000526020600020908101906103ee91906103f1565b50565b5b8082111561041157600081816104089190610415565b506001016103f2565b5090565b50805461042190610748565b6000825580601f106104335750610452565b601f0160209004906000526020600020908101906104519190610455565b5b50565b5b8082111561046e576000816000905550600101610456565b5090565b6000604051905090565b600080fd5b600080fd5b6000819050919050565b61049981610486565b81146104a457600080fd5b50565b6000813590506104b681610490565b92915050565b6000602082840312156104d2576104d161047c565b5b60006104e0848285016104a7565b91505092915050565b600081519050919050565b600082825260208201905092915050565b60005b83811015610523578082015181840152602081019050610508565b60008484015250505050565b6000601f19601f8301169050919050565b600061054b826104e9565b61055581856104f4565b9350610565818560208601610505565b61056e8161052f565b840191505092915050565b600060208201905081810360008301526105938184610540565b905092915050565b600080fd5b600080fd5b7f4e487b7100000000000000000000000000000000000000000000000000000000600052604160045260246000fd5b6105dd8261052f565b810181811067ffffffffffffffff821117156105fc576105fb6105a5565b5b80604052505050565b600061060f610472565b905061061b82826105d4565b919050565b600067ffffffffffffffff82111561063b5761063a6105a5565b5b6106448261052f565b9050602081019050919050565b82818337600083830152505050565b600061067361066e84610620565b610605565b90508281526020810184848401111561068f5761068e6105a0565b5b61069a848285610651565b509392505050565b600082601f8301126106b7576106b661059b565b5b81356106c7848260208601610660565b91505092915050565b6000602082840312156106e6576106e561047c565b5b600082013567ffffffffffffffff81111561070457610703610481565b5b610710848285016106a2565b91505092915050565b7f4e487b7100000000000000000000000000000000000000000000000000000000600052602260045260246000fd5b6000600282049050600182168061076057607f821691505b60208210810361077357610772610719565b5b50919050565b60008190508160005260206000209050919050565b60006020601f8301049050919050565b600082821b905092915050565b6000600883026107db7fffffffffffffffffffffffffffffffffffffffffffffffffffffffffffffffff8261079e565b6107e5868361079e565b95508019841693508086168417925050509392505050565b6000819050919050565b600061082261081d61081884610486565b6107fd565b610486565b9050919050565b6000819050919050565b61083c83610807565b61085061084882610829565b8484546107ab565b825550505050565b600090565b610865610858565b610870818484610833565b505050565b5b818110156108945761088960008261085d565b600181019050610876565b5050565b601f8211156108d9576108aa81610779565b6108b38461078e565b810160208510156108c2578190505b6108d66108ce8561078e565b830182610875565b50505b505050565b600082821c905092915050565b60006108fc600019846008026108de565b1980831691505092915050565b600061091583836108eb565b9150826002028217905092915050565b61092e826104e9565b67ffffffffffffffff811115610947576109466105a5565b5b6109518254610748565b61095c828285610898565b600060209050601f83116001811461098f576000841561097d578287015190505b6109878582610909565b8655506109ef565b601f19841661099d86610779565b60005b828110156109c5578489015182556001820191506020850194506020810190506109a0565b868310156109e257848901516109de601f8916826108eb565b8355505b6001600288020188555050505b505050505050565b600081905092915050565b6000610a0d826104e9565b610a1781856109f7565b9350610a27818560208601610505565b80840191505092915050565b6000610a3f8284610a02565b915081905092915050565b7f4e487b7100000000000000000000000000000000000000000000000000000000600052603260045260246000fd5b6000610a858286610a02565b9150610a918285610a02565b9150610a9d8284610a02565b9150819050949350505050565b7f4e487b7100000000000000000000000000000000000000000000000000000000600052601160045260246000fd5b6000610ae482610486565b91507fffffffffffffffffffffffffffffffffffffffffffffffffffffffffffffffff8203610b1657610b15610aaa565b5b60018201905091905056fea26469706673582212203855d93315e3be1262b988f9a4c483d347fc2bacb2798612c69b3e098c51073764736f6c63430008130033",
  "linkReferences": {},
  "deployedLinkReferences": {}
}