{
  "_format": "hh-sol-artifact-1",
  "contractName": "DataStorage",
  "sourceName": "src/contracts-app/contracts/DataStorage.sol",
  "abi": [
    {
      "anonymous": false,
      "inputs": [
        {
          "indexed": false,
          "internalType": "string",
          "name": "storedResult",
          "type": "string"
        }
      ],
      "name": "DataWritten",
      "type": "event"
    },
    {
      "inputs": [
        {
          "internalType": "string",
          "name": "newData",
          "type": "string"
        }
      ],
      "name": "addData",
      "outputs": [],
      "stateMutability": "nonpayable",
      "type": "function"
    },
    {
      "inputs": [],
      "name": "clearData",
      "outputs": [],
      "stateMutability": "nonpayable",
      "type": "function"
    },
    {
      "inputs": [
        {
          "internalType": "uint256",
          "name": "",
          "type": "uint256"
        }
      ],
      "name": "storedData",
      "outputs": [
        {
          "internalType": "string",
          "name": "",
          "type": "string"
        }
      ],
      "stateMutability": "view",
      "type": "function"
    },
    {
      "inputs": [
        {
          "internalType": "string[]",
          "name": "values",
          "type": "string[]"
        },
        {
          "internalType": "string",
          "name": "delimiter",
          "type": "string"
        }
      ],
      "name": "stringJoin",
      "outputs": [
        {
          "internalType": "string",
          "name": "",
          "type": "string"
        }
      ],
      "stateMutability": "pure",
      "type": "function"
    },
    {
      "stateMutability": "payable",
      "type": "receive"
    }
  ],
  "bytecode": "0x608060405234801561001057600080fd5b50610cfd806100206000396000f3fe6080604052600436106100435760003560e01c8063303771741461004f578063b9e7a4391461008c578063c2fc2dfe146100a3578063d4a2498d146100e05761004a565b3661004a57005b600080fd5b34801561005b57600080fd5b5061007660048036038101906100719190610504565b610109565b60405161008391906105c1565b60405180910390f35b34801561009857600080fd5b506100a16101b5565b005b3480156100af57600080fd5b506100ca60048036038101906100c591906107fe565b6101c4565b6040516100d791906105c1565b60405180910390f35b3480156100ec57600080fd5b5061010760048036038101906101029190610876565b610275565b005b6000818154811061011957600080fd5b906000526020600020016000915090508054610134906108ee565b80601f0160208091040260200160405190810160405280929190818152602001828054610160906108ee565b80156101ad5780601f10610182576101008083540402835291602001916101ad565b820191906000526020600020905b81548152906001019060200180831161019057829003601f168201915b505050505081565b6000806101c29190610418565b565b606060008351036101e65760405180602001604052806000815250905061026f565b6000836000815181106101fc576101fb61091f565b5b602002602001015190506000600190505b845181101561026957818486838151811061022b5761022a61091f565b5b60200260200101516040516020016102459392919061098a565b60405160208183030381529060405291508080610261906109ea565b91505061020d565b50809150505b92915050565b6000819080600181540180825580915050600190039060005260206000200160009091909190915090816102a99190610bde565b5060006103bc6000805480602002602001604051908101604052809291908181526020016000905b8282101561037d5783829060005260206000200180546102f0906108ee565b80601f016020809104026020016040519081016040528092919081815260200182805461031c906108ee565b80156103695780601f1061033e57610100808354040283529160200191610369565b820191906000526020600020905b81548152906001019060200180831161034c57829003601f168201915b5050505050815260200190600101906102d1565b505050506040518060400160405280600281526020017f2c200000000000000000000000000000000000000000000000000000000000008152506101c4565b6040516020016103cc9190610cb0565b60405160208183030381529060405290507fdb857c149804efe92c8bd47d059285f40fdced374ca6c0687e2e33497ff2d0d18160405161040c91906105c1565b60405180910390a15050565b50805460008255906000526020600020908101906104369190610439565b50565b5b808211156104595760008181610450919061045d565b5060010161043a565b5090565b508054610469906108ee565b6000825580601f1061047b575061049a565b601f016020900490600052602060002090810190610499919061049d565b5b50565b5b808211156104b657600081600090555060010161049e565b5090565b6000604051905090565b600080fd5b600080fd5b6000819050919050565b6104e1816104ce565b81146104ec57600080fd5b50565b6000813590506104fe816104d8565b92915050565b60006020828403121561051a576105196104c4565b5b6000610528848285016104ef565b91505092915050565b600081519050919050565b600082825260208201905092915050565b60005b8381101561056b578082015181840152602081019050610550565b60008484015250505050565b6000601f19601f8301169050919050565b600061059382610531565b61059d818561053c565b93506105ad81856020860161054d565b6105b681610577565b840191505092915050565b600060208201905081810360008301526105db8184610588565b905092915050565b600080fd5b7f4e487b7100000000000000000000000000000000000000000000000000000000600052604160045260246000fd5b61062082610577565b810181811067ffffffffffffffff8211171561063f5761063e6105e8565b5b80604052505050565b60006106526104ba565b905061065e8282610617565b919050565b600067ffffffffffffffff82111561067e5761067d6105e8565b5b602082029050602081019050919050565b600080fd5b600080fd5b600067ffffffffffffffff8211156106b4576106b36105e8565b5b6106bd82610577565b9050602081019050919050565b82818337600083830152505050565b60006106ec6106e784610699565b610648565b90508281526020810184848401111561070857610707610694565b5b6107138482856106ca565b509392505050565b600082601f8301126107305761072f6105e3565b5b81356107408482602086016106d9565b91505092915050565b600061075c61075784610663565b610648565b9050808382526020820190506020840283018581111561077f5761077e61068f565b5b835b818110156107c657803567ffffffffffffffff8111156107a4576107a36105e3565b5b8086016107b1898261071b565b85526020850194505050602081019050610781565b5050509392505050565b600082601f8301126107e5576107e46105e3565b5b81356107f5848260208601610749565b91505092915050565b60008060408385031215610815576108146104c4565b5b600083013567ffffffffffffffff811115610833576108326104c9565b5b61083f858286016107d0565b925050602083013567ffffffffffffffff8111156108605761085f6104c9565b5b61086c8582860161071b565b9150509250929050565b60006020828403121561088c5761088b6104c4565b5b600082013567ffffffffffffffff8111156108aa576108a96104c9565b5b6108b68482850161071b565b91505092915050565b7f4e487b7100000000000000000000000000000000000000000000000000000000600052602260045260246000fd5b6000600282049050600182168061090657607f821691505b602082108103610919576109186108bf565b5b50919050565b7f4e487b7100000000000000000000000000000000000000000000000000000000600052603260045260246000fd5b600081905092915050565b600061096482610531565b61096e818561094e565b935061097e81856020860161054d565b80840191505092915050565b60006109968286610959565b91506109a28285610959565b91506109ae8284610959565b9150819050949350505050565b7f4e487b7100000000000000000000000000000000000000000000000000000000600052601160045260246000fd5b60006109f5826104ce565b91507fffffffffffffffffffffffffffffffffffffffffffffffffffffffffffffffff8203610a2757610a266109bb565b5b600182019050919050565b60008190508160005260206000209050919050565b60006020601f8301049050919050565b600082821b905092915050565b600060088302610a947fffffffffffffffffffffffffffffffffffffffffffffffffffffffffffffffff82610a57565b610a9e8683610a57565b95508019841693508086168417925050509392505050565b6000819050919050565b6000610adb610ad6610ad1846104ce565b610ab6565b6104ce565b9050919050565b6000819050919050565b610af583610ac0565b610b09610b0182610ae2565b848454610a64565b825550505050565b600090565b610b1e610b11565b610b29818484610aec565b505050565b5b81811015610b4d57610b42600082610b16565b600181019050610b2f565b5050565b601f821115610b9257610b6381610a32565b610b6c84610a47565b81016020851015610b7b578190505b610b8f610b8785610a47565b830182610b2e565b50505b505050565b600082821c905092915050565b6000610bb560001984600802610b97565b1980831691505092915050565b6000610bce8383610ba4565b9150826002028217905092915050565b610be782610531565b67ffffffffffffffff811115610c0057610bff6105e8565b5b610c0a82546108ee565b610c15828285610b51565b600060209050601f831160018114610c485760008415610c36578287015190505b610c408582610bc2565b865550610ca8565b601f198416610c5686610a32565b60005b82811015610c7e57848901518255600182019150602085019450602081019050610c59565b86831015610c9b5784890151610c97601f891682610ba4565b8355505b6001600288020188555050505b505050505050565b6000610cbc8284610959565b91508190509291505056fea2646970667358221220b1ccc9a11282aedbbfb5d84caf5d72b9db1e9cf3076fbe564cf11546d33204f864736f6c63430008130033",
  "linkReferences": {},
  "deployedLinkReferences": {}
}